:020000040000fa
:10000000f87f0020cd4f00003f2a00003b32000067
:1000100000000000000000000000000000000000e0
:100020000000000000000000000000004736000053
:10003000000000000000000047360000fd580000ee
:1000400047360000473600004736000047360000bc
:1000500047360000473600004736000047360000ac
:10006000473600004736000047360000473600009c
:100070006125000047360000412a00004736000095
:10008000473600004736000045590000215900005e
:10009000473600000000000000000000b5580000d6
:1000a000473600004736000047360000473600005c
:020000040000fa
:1000b000f8b5c046f8bc08bc9e467047ad4f00007e
:1000c000f8b5c046f8bc08bc9e467047854f000096
:020000040000fa
:0800d00094340000010000005f
:020000040000fa
:1000d80000f84622128a7c000402fe000000000498
:1000e8008242221c000084121212ec004060504828
:1000f80044fe40009e121212e20000f8241212126e
:10010800e000020282621a0600ec121212ec0000f1
:100118009c222222927c00e05c424e70c000fe12bb
:100128001212ec0000f8840202020000fe02020231
:10013800847800fe121212120000fe12121212002f
:100148007884022222e40000fe101010fe00000253
:1001580002fe02020000020202fe020000fe101867
:1001680024c20000fe0000000000fe04182018044d
:10017800fe00fe0438c0fe00788402020284780083
:10018800fe2222221c00f8040242827c0000fe2289
:1001980022629c00008c121222c400000202fe029d
:1001a800020000fe00000000fe003ee000e038060d
:1001b80000fe807080fe0002864830488602020ced
:1001c80010e0100c0200824222120a0600c0282801
:1001d80028f00000ff080808f00000f00808089060
:1001e8000000f0080888ff0000f048484848300040
:1001f8000808fe090901007088888888f000ff1047
:100208000808f000000808fb00000000080808fbc8
:10021800000000ff2050980800000101ff000000c6
:10022800f81008f81008f800f8080808f00000f0be
:1002380008080808f000fc84848478000078848426
:1002480084fc0000f810080818000090282848903e
:10025800000808fe0808080000f8000080f8000000
:1002680038c000c0380000f8807080f8000818a076
:1002780040a0180800384080807800000888681876
:10028800080060103060403000000000bf800000af
:10029800f00ef309f903fc48e85e48e85e48000cf4
:1002a800927f22c00006896610cc22c10018040281
:1002b800041800c02e11798ee0000000f806010035
:1002c8000000000106f800000000ff010100000026
:1002d800000101ff0000002020de010100000101f3
:1002e800de2020000000000000000000010e30c0e9
:1002f8000000000000ff00000000000098980000c7
:1003080000000098980000000000808000000000b5
:1003180080800000000001030200000000000007c8
:1003280007000000070700070700002070d88804ae
:1003380000000488d8702000202020fc2020200005
:10034800002020202000000a041f040a000000c02a
:10035800300e0100005050505050000002a1b11161
:100368000e00000000000000000000010101010073
:10037800000101010101000001010101010000006b
:10038800010101000000000000000100000001015f
:10039800010000000001010101000000000100004f
:1003a800000000010101000000000101010000003f
:1003b800010000000001000101010100000000012e
:1003c800010101000001010101000000010101011a
:1003d8000100000100000000000000010101000010
:1003e80000010000000100000101010101000001fd
:1003f80001010000000001000000010000010101ee
:1004080001010001000000000001000100000001de
:1004180000000001010100000001000000000000d0
:1004280001010100010000010000000001000001bd
:1004380001010000000000010000000000010101ae
:10044800010000000001000000000101000101009e
:10045800010100000001010000000100000000018e
:100468000101010101000001010101000001010178
:10047800010000000001010100000000010100016d
:10048800000000010101010100000001000000005e
:100498000008080808070001000000010000010129
:1004a8000101010000080808070000000100000021
:1004b800010000010101010100010000010000012b
:1004c8000001000000010000000101010100000717
:1004d800000000000000000000000700000100000c
:1004e80000000000000101010000000000010101fe
:1004f80000000001010001000000000100000000f0
:1005080000010000010001010000000101000404d5
:1005180002010000000101010101000000000000cb
:10052800000000000001010000030409090901009e
:1005380000010000010000000107010100000100a6
:10054800000000010000000000000000000101019f
:100558000001010000010608000000000806010073
:100568000000000f08080000000008080f00000045
:10057800000007080800000808070000000808082d
:1005880008080808000000000102000000000f0031
:100598000000000004070300000000000101000043
:1005a8000000040703000000000101000000000033
:1005b8000000000000000000000000000000000033
:1005c8000000000000000000010000010000000021
:1005d8000000000001000000000000000000000012
:1005e8000000000000000002010000000000000000
:1005f80000000000000001010000000000000000f1
:040608000000c046e8
:020000040000fa
:10060c00f0b59bb013930b6815900d934b6812913a
:10061c0004938b680e930b691893cb68069313683d
:10062c000b9353680b98089300220023089904f04d
:10063c00b3fe00280dd10d9b5b073ad408200d9b0f
:10064c0003400c930e9b07930c9b002b0fd0202385
:10065c0006e0802212069446089b634408932d23df
:10066c00069a13700e9b013b079301230c93089b76
:10067c000b995b005b08984a00291ed193421cd150
:10068c00069c139ba4460c9a413b62449349100070
:10069c00192b10d805f078fb069805f0fdfa0d9b88
:1006ac000200009306990e9b159803f063ff1bb094
:1006bc00f0bd2b23d4e70431ece7934203d810d1df
:1006cc000b9b002b0dd0069c139ba4460c9a413b14
:1006dc00624482491000192b01d80831dae70c3139
:1006ec00d8e7002200230b98089904f0f5ff0026a8
:1006fc007b4f002833d000230393139805f0f4fab2
:10070c00c3b20f93049b002b00dae8e10f9b0a9312
:10071c00672b00d0f1e0049b002b00d1dae1039ba6
:10072c00043304db039b049a934200dae0e0652374
:10073c00f9e026002f00039b013303930022694b41
:10074c003000390002f0ccf80b9a089b04000d0025
:10075c0004f003fe0028ecd00024012524e00390d3
:10076c00ece7039b1a00604b9a4212da002c10d172
:10077c0000225e4b0b98089902f0b2f800220b9005
:10078c00089130003900594b02f0aaf82c000600f1
:10079c000f00544b30003900002203f0f2f8060031
:1007ac000f00039b013b039332003b000b9808990d
:1007bc0004f0f2fd0028d4d19fe70023002410930d
:1007cc001194fee0089609970a9b039d652b00d0b7
:1007dc0019e1002517e1002f0ad1002d08da2e238c
:1007ec00069a149901365354079b0137013b079322
:1007fc00a21933009446302102e0069ad1540133f9
:10080c009c45fad1079aa319141b069a30305e1c2a
:10081c00d054631e0793002421e0129b14961b698d
:10082c000493053bb34200d8f7e0089a099b0b9858
:10083c00109903f0a6f803f0c1f90490059104f0a7
:10084c00a5fe092800dd092010230d9a134003434f
:10085c00c1d10f9b672bbed1002dc9da013480208a
:10086c000006844610990b9a61440b000498059974
:10087c0000920193089a099b05f026fa80231b0627
:10088c00cb180b901093089809990022154b03f084
:10089c0078f8013d08900991bbe00d9bdb0600d474
:1008ac00bee02e23069a93550136b9e00398390021
:1008bc0003f02efb069b3031013c1955039839008f
:1008cc0003f0dcfa079b0390013b0793bfe0069a09
:1008dc00125c1a540138ede00000f07fc45c00009b
:1008ec000000f03f00002440d4feffff0000504306
:1008fc00039b002b16da66230a93049b01330493a3
:10090c000a9b662b10d1039b002b03da00230026d5
:10091c00764f03930f9b672b04d0039a049b94464a
:10092c006344049366230a930023109611970b9d3e
:10093c00089c1493109a119b2800210003f021f8b5
:10094c0003f03cf91690179104f020fe80212a0048
:10095c000906631819900092019316981799109a2a
:10096c00119b05f0b1f980231b06cc180022604bbb
:10097c0005001098119903f004f8149b1090119134
:10098c0001331493149a049b9342d3d10022594bf4
:10099c0001f0a6ff1090119102000b00280021001d
:1009ac0004f0fafc002800d007e7109a119b2800ed
:1009bc00210004f091fe002803d0199bdb0700d422
:1009cc00fbe6109a119b0b98089901f0fffb002293
:1009dc000b901091464b3000390001f081ff0b9abf
:1009ec00109b0890099104f075fb002800d1e9e6f2
:1009fc00039b013303930a9b662b00d0e4e6049b14
:100a0c00039d0133049300242700049b0c9eeb1ad6
:100a1c001693169b9d4200d0ffe6002f00d13ce7b9
:100a2c000025069b9b1904931d700a9b652b31d1e5
:100a3c00189b5c1e069b1d55039bab4202da5b4266
:100a4c000393013503230a27189a9b1a0893039bd7
:100a5c00002b00d02ae7089b1b19002b00dd25e793
:100a6c00621e2d23002d00d1023b0699023c8b54b3
:100a7c00139b413b192b01d845230a93069b19194b
:100a8c000a9b0b70079b023b0793a64202da049861
:100a9c0005f07af903230d9a1340022b00d0fbe5e5
:100aac00079b002b00dcf7e5069805f0f5f8069b94
:100abc00079a9b180c9a824200dc08e71300069aee
:100acc003021944663441800079a05f0ddf80023a2
:100adc000e93e1e50123049321e60623fbe70f9b2c
:100aec00672bfad00a930623049306e70000f03f25
:080afc0000002440000014403a
:020000040000fa
:100b0400f0b5de4657464e464546e0b5bdb00490c6
:100b14008a4605939046002a1cdd00230020140019
:100b24000d009900695840180133a342f9dba0462f
:100b3400aa46110003f01cfc00230021ab4c4546df
:100b44005646f258121ae25001310433a942f8db36
:100b5400a846b246a54c2200032113685068844677
:100b64006344906884466344d06884466344d817d9
:100b74000840c3189b1008c29d4b9a42edd19d4f6b
:100b84009d4be018390023005a6820cb521b04c146
:100b94008342f9d1f723db00f9183a00136855684a
:100ba400ac4663441800db0f1b185b1008c28a4272
:100bb400f4d1924b9946b9443d00bb464e46a146fa
:100bc40005e08f4903f05ef901c5b5420cd08d4ba9
:100bd4001c000a34290000201f8804c97a43801aa3
:100be4000233a342f8d1ece74c465f46824bfa1835
:100bf400002008cfd9175b184b40c0189742f8d192
:100c0400f025ff350523029303330193290003f0f4
:100c140039f900902b00774a3ba90ea804f0ecfcac
:100c24003b9d012d48dd0eabaa000da989180020bb
:100c34005a6840cb921b80188b42f9d1691e03f08d
:100c440021f90100049803f01df9489b1880012341
:100c5400499a13700ea82ca9002208c8023308c1af
:100c640001329542f9dc4346002b12dd00230022b9
:100c74005e486549a946a44646465746059cfd5824
:100c8400c550e558cd5001320433b242f7db4d462e
:100c94006446002d00dc84e02caf1dab9b46ad0008
:100ca4005d44180000239a46e423ff3398464f4bd3
:100cb4009c46a1462c001ce0544b489a1380002308
:100cc400499a1370012dc5d0cde701338b4208d06a
:100cd4009a006446a258aa42f7da03601500002677
:100ce400f3e7049c73425e41b24404370430a042eb
:100cf4000ad039688b1f4345f7d84b1f053180252f
:100d04006d0401260494e3e74c465346012b48dd69
:100d14003d4a03212368606884466344a06884468e
:100d24006344e06884466344d8170840c3189b10a2
:100d340008c41368506884466344906884466344d6
:100d4400d06884466344d8170840c3189b1008c26f
:100d5400274b9c42ded1002309930a930b930c93f7
:100d64000d93fa235b001d9a9a4221dc1eaaf43be0
:100d7400ff3bfa214900504614688c4218dc0133c9
:100d840004329842f8d15b461a1f8300d3180693a5
:100d94000023049305939946ff231b0607935d469e
:100da40088e01a4b469a13800023479a137005e093
:100db400164b469a13800023479a13703db03cbcef
:100dc40090469946a246ab46f0bd01330431043245
:100dd4009c4220d00868b84201dd049307001068e3
:100de400b042f2dd05930600efe7c046040c002094
:100df400c4130020442b0020bc070000a4070000fb
:100e04007a04000068520000d413002019fcffff8c
:100e1400ff273f06079e43469b00584a9b589b4624
:100e2400a3009b585a469b1a049a4146501a5843a9
:100e3400514603f027f85844059a93004f495b58ec
:100e4400181a4643f611002e30dd4b46042b2ddcd8
:100e540043469b004a495b589b46a4006358594645
:100e64005b1a14004146501a5843514603f00af8dd
:100e74005844a300424a9b58181a7843c01115d00d
:100e84004b469f0004f0eefc3e4902f03ffe041c7a
:100e9400300004f0e7fc011c201c03f01efa04ab34
:100ea40014229b18d85101239c46e1440435069b27
:100eb4009d4214d06c682b689846e31a9a460a2b14
:100ec400f4dd4445a4dd43469a002c4bd1182c4b49
:100ed4009c4662444346ff273f06079e7ae74946fd
:100ee40009a803f0c4fb4b46db0f4b445b104a4696
:100ef400032a37dd09a85a1e92009b00195810587e
:100f040002f062f8fc21890502f000fe041c802135
:100f1400c905201c04f0b6fb002827d01a49201c60
:100f240004f0c7fb002821d01849201c02f0eefd74
:100f3400211c02f0ebfd051c1549201c02f0e6fd06
:100f4400011c281c02f040f8124902f03df8124935
:100f540003f0c3f904f0e6f9469b18800123479a8d
:100f640013702be79b0009aa9c58d0e70b4b469ab9
:100f740013800023479a137020e7c046040c002016
:100f8400d41300200000c84200003843713d34c22d
:100f940066b63d45208e674900401c4619fcffff9c
:020000040000fa
:100fa400f0b599b014930b68566809934b68139085
:100fb4000d938b68cf680c930b6931001193136800
:100fc400002207930798002304f0eaf900280cd1c3
:100fd400099b5b0732d40820099b0c9d03400593b1
:100fe4000cd02023013d3b7006e080231b06f6183d
:100ff4002d233b700c9b5d1e01230593079a730000
:101004005b08002a1cd1b24a934219d1149bb14cfb
:10101400059a413bb8182100192b00d9211d04f071
:10102400b7fe201d04f03cfe099b0200009339002a
:101034000c9b139803f0a2fa19b0f0bd2b23d8e748
:10104400a34a934203d812d1079b002b0fd0149bc1
:10105400a04c059a413bb8182100192b05d808313a
:1010640004f096fe20000c30dce70c31f8e7059b19
:1010740005995a1c30237b54149b413b0e930e99c3
:101084005823192900d920330599bb540231ab1eca
:1010940005910893002200230798310004f020fbf7
:1010a400002800d164e100238b4c0693029303943f
:1010b4000d9b1093002b01da18231093029b039cc1
:1010c4000a930b9434000023079d129328000a9a74
:1010d4000b9b210002f059fc02f074fd0a9a0b9b51
:1010e4001690179101f000fc02000b00280021006b
:1010f40004f0f6fd794b05000c000a980b990022c8
:1011040001f0f2fb129b0a900b9101330f930d9b9c
:10111400002b07da002200232800210004f0e0fa63
:10112400002806d1109b129a934200dd26e1013378
:101134000f9300220a980b99694b01f0d5fb0a9092
:101144000b9102000b002800210004f029f900286b
:1011540000d015e10a9a0b9b2800210004f0c0fa84
:10116400002806d01698179904f014fac30700d47f
:1011740006e10a9a0b9b0798310001f02bf81291b3
:1011840049000a904908002803d1514b994200d1e3
:101194003ce70025059c10950795119b2600053b0f
:1011a400a34230d9029a039b0a98129902f0edfbec
:1011b40002f008fd1490159104f0ecf9031e00d020
:1011c400e3e0079a002a00d1dfe00135029a039b8d
:1011d4001498159901f088fb02000b000a981299e3
:1011e40004f07efd00220a9012913c4b0298039970
:1011f40001f07afb079b0290039101330793079a4e
:101204000f9b9342c9d1109b002b1ad1002d00d102
:10121400fce00d9b002b00dcf8e0099bdb0700d50c
:10122400f4e02e2230213b191a702a19ba18597089
:1012340001339a42fbd12c19ed43089b0134eb187e
:10124400089300263b191e700293119b5d1e069b9a
:101254007e55b34202da5b42069301360223119aa9
:101264009b1a0793069b002b00d0bbe0079b5b19de
:10127400012b00d1b6e06a1e2d23002e00d1023bc3
:10128400bb540e9a023d5023192a00d920337919f0
:101294000b70ac4202da029804f07afd0323099a37
:1012a4001340022b12d1089d023d002d0edd3800a3
:1012b40004f0f6fc7b19059a904200dba2e0b81812
:1012c40030212a0004f0e4fc00230c933800a9e642
:1012d4000000f07fb45c00000000f03f0000b03f6d
:1012e40000002040069b0294039501330693029a62
:1012f400039b1000190000f06dff04000d000200b4
:101304000b000798310004f04bf80028ead0029a49
:10131400039b0798310004f043f8002800d1c7e686
:101324000298039900223d4b01f0defa00220023cb
:1013340004f0d6f900280fd0029803990022384b04
:1013440001f0d2fa002202900391354b0798310044
:1013540001f0cafa0e000790304b0298039900225c
:1013640001f0c2fa069b02900391013b0693cee77b
:1013740000232c4c069002930394b8e70f9ba4e639
:10138400002300240a930b94f3e6109a002a0ad14e
:10139400079a002a07d02e22ba55089a0134013a36
:1013a4000892012210922e1902e030223a5501349b
:1013b400b442fad11800089a5730551b092b01dca6
:1013c400303318000e9b192b06d820230343613bae
:1013d400192b01d804f093fc6b1e741cb8550893a8
:1013e4000025f3e606980a2102f096fd013d30310e
:1013f400795506980a2102f045fd089b0690013ba9
:1014040008932fe73a5c1a54013854e7099bdb062a
:1014140000d416e72e233b55013412e70000e03fc9
:08142400000050430000f03ffe
:020000040000fa
:10142c0000000000000000000000000000000000b0
:10143c0000000000000000000000000000000000a0
:10144c000000000000000000000000000000000090
:10145c000080c0c0e0f0f0f0f8f8f8fcfcfcfcfcfc
:10146c00fcfcfcfcfcf8f8f8f0e080000000081430
:10147c000800000000000000000000000000000058
:10148c000000000000000000000000000000000050
:10149c000000000000000000000000000000000040
:1014ac000000000000000000000000000000000030
:1014bc000000000000000000000000000000000020
:1014cc00000000000000000000000000c0f0f8fe6a
:1014dc00ffffff7f3f1f07030101030f1f7fffff6c
:1014ec00ffff7f1f0f03030103070f3ffcf8e08092
:1014fc0000000000000000000000000000000000e0
:10150c0000000000000000000000000000000000cf
:10151c0000000000000000000000000000000000bf
:10152c0000000000000000000000000000000000af
:10153c00000000000000000000000000000000009f
:10154c000000000000000000000000feffff3f1f35
:10155c000f070f1f7cf0e08000000000000000036c
:10156c00071f7ef8e0c00000000000000001070f1c
:10157c003ffcf8e0c000000000000000000000008c
:10158c00000000000000000000000000000000004f
:10159c00000000000000000000000000000000003f
:1015ac00000000000000000000000000000000002f
:1015bc00000000000000000000000000000000001f
:1015cc00000000000000000000000003010000000b
:1015dc0000000080c0e0fffffffcf8e0800000008e
:1015ec0000000000c3e7fffef8f0c00000000000a0
:1015fc0000000107070000000000000000000000d0
:10160c0000000000000000000000000000000000ce
:10161c0000000000000000000000000000000000be
:10162c0000000000000000000000000000000000ae
:10163c00000000000000000000000000000000009e
:10164c00000000000000000000000000000000008e
:10165c00000c1e3f7f7ffffffffffffffffffcf82b
:10166c00f8fcfeffffffffffffff7f7f3e1800002f
:10167c00000000000000000000000000000000005e
:10168c00000000000000000000000000000000004e
:10169c00000000000000000000000000000000003e
:1016ac0000000000000000c0f0f8f0f08000000026
:1016bc0000000080f0f0f8f0c00000000000000016
:1016cc00000000000000000000000000000000000e
:1016dc0000000000000000000101010101030303f0
:1016ec0003030301010101000000000000000000e1
:1016fc0000000000000000000000000000000000de
:10170c0000000000000000000000000000000000cd
:10171c0000000000000000000000000000000000bd
:10172c0000000000000080ffffff071ffffef0c05d
:10173c00c0f0feff3f07ffffff800000ffffff0030
:10174c0000fcfeff0f07070707070707060000ff4f
:10175c00ffff878787878787cffffe780000feff14
:10176c00ff0f070707070ffffffe0000fcfeff0f30
:10177c0007070707070707060000ffffffe0e0e089
:10178c00e0e0e0ffffff0000ffffffff0000ffffb6
:10179c00ff07070707078ffffefc00000000000093
:1017ac000000000000003f3f3f0f000000071f1f1c
:1017bc001f1f07000000073f3f3f00003f3f3f0057
:1017cc00000f1f3f3c383838383838381800003f85
:1017dc003f3f030303030303073f3e3c00001f3f4f
:1017ec003f3c383838383c3f3f1f00000f1f3f3c10
:1017fc00383838383838381800003f3f3f0101017d
:10180c000101013f3f3f00003f3f3f3f00003f3f92
:10181c003f07070707070707030100000000000048
:020000040000fa
:10182c00783a00201c00000000000000d83a00208c
:10183c0008000000000000004c3a00202c000000c2
:10184c00000000001c3a00203000000000000000e6
:10185c00cc3a00200c00000000000000e03a002010
:10186c000800000000000000e83a0020080000001a
:10187c0000000000030c002001000000000000002c
:10188c003e3b00200100000000000000003b002057
:10189c000400000000000000943a00201c0000002e
:1018ac0000000000b03a00201c0000000000000006
:1018bc00043b002004000000000000003f3b00201f
:1018cc00010000000000000004390020c8000000e6
:1018dc0000000000af3b00200100000001000000f0
:1018ec0032000000b63b00200100000001000000a7
:1018fc0002000000463b0020010000000000000038
:10190c0000000020030c000000000000503b0020f1
:10191c005f000000010000003031323334353637bf
:10192c0038394142434445464748494a4b4c4d4e51
:10193c004f505152535455565758595a616263641b
:10194c0065666768696a6b6c6d6e6f7071727374c3
:10195c0075767778797a7e21402324255e2628298e
:10196c005b5d7b7d5f5c7c3b3a2c2e6027223c3e92
:10197c002b2d2a2f3d3f20004e3b00200200000063
:10198c0001000000010000000433002000040000ee
:10199c0000000000083b00200400000000000000d4
:1019ac00442b0020c007000000000000040c0020a5
:1019bc00d007000000000000d4130020d007000066
:1019cc0000000000f03a00200600000000000000bb
:1019dc00473b002001000000000000004c3b0020b1
:1019ec000100000000000000483b00200200000045
:1019fc0000000000443b002002000000000000003a
:101a0c00b03b00200600000001000000060708099a
:101a1c000a0b000004370020000200000000000048
:101a2c004a3b002001000000000000004b3b00205e
:101a3c000100000000000000413b002001000000fc
:101a4c0000000000403b00200100000000000000ee
:101a5c00b73b002001000000010000000100000065
:101a6c000c3b00200400000000000000103b002094
:101a7c000400000000000000143b002004000000e3
:101a8c0000000000183b00200400000000000000d3
:101a9c001c3b002004000000000000003c3b002028
:101aac000200000000000000203b002004000000a9
:101abc0000000000243b0020040000000000000097
:101acc00f63a00200200000000000000fe3a002060
:101adc000200000000000000f83a002006000000a0
:101aec0000000000a41b0020d00700000000000034
:101afc0074230020d007000000000000423b0020af
:101b0c000100000000000000433b00200100000029
:101b1c0000000000283b0020040000000000000032
:101b2c002c3b002004000000000000004d3b002076
:101b3c000100000000000000303b00200400000009
:101b4c0000000000cc390020500000000000000014
:101b5c00343b00200400000000000000383b002053
:101b6c000400000000000000000000000000000065
:020000040000fa
:101b7c00f0b587b0b14b1b78dbb2042b1fd89b00a0
:101b8c00af4ad3589f4603f033f803f017fffa24fb
:101b9c00e40022000021ab4804f076f8220000217a
:101bac00a94804f071f80023a84a1360a84a1360ee
:101bbc00a84a1360a84a1360a04b01221a7007b000
:101bcc00f0bd03f0fbfec0231842f8d0a34803f08d
:101bdc003efd9a4b02221a70f1e7a0494a78120294
:101bec008b781a4308780004c024a40220400243d6
:101bfc009b4b1a600b791b024a791343ca78120467
:101c0c0022401343974a1360974a93420bd9974a41
:101c1c0093423dd98d4b1868954b984213dd874bf9
:101c2c0003221a70cbe7894b00221a60002003f0c4
:101c3c00adfd002001f012fc002002f0fbfd7f4bfb
:101c4c0001221a70bbe7142102f062f900290bd0b3
:101c5c007e490b685a1c0a60952a0edc322aeed19a
:101c6c00012003f093fdeae7022001f0f7fb774b2c
:101c7c001888804902f08affeae7953b9b00784a76
:101c8c001168704a9950774a11686f4a9950d6e793
:101c9c006e4b00221a60fa24e400220000216948ed
:101cac0003f0f2ff22000021674803f0edff012052
:101cbc0001f0d4fb6b4b186802f0bcfdbfe76e481b
:101ccc006e4b18606e4b00221a605e495e4b6d4a7b
:101cdc009e180022059200240025012703e0043100
:101cec0004339e420cd04a680a605a681a608242d9
:101cfc0001d210003d00a242f1d914000597eee785
:101d0c00002d01d05d4b1860059b002b01d05c4b66
:101d1c001c605c4a524b19684a4b9950514b1b68da
:101d2c0049498b50554a1268934201d2534a136069
:101d3c00534a1268934201d9514a1360444c2368a8
:101d4c00581c642102f0e4f82160002903d03b4bbd
:101d5c0004221a7033e7fa224b4b03934b4b02933a
:101d6c004b4b01934b4b0093374b520035494a4830
:101d7c00fef7c2feebe7494b1b68002b2ad1424b06
:101d8c001b785bb2002b04d0404b0021595e00291c
:101d9c0017d1304c2368581c642102f0b9f821602b
:101dac00002932d02c4803685a1cd117890f5218bd
:101dbc00032313405b1a036036d0204b01221a70a8
:101dcc00fde6374802f05af8344b1860012103f055
:101ddc0095fedee7012003f08bfb002809d10220e1
:101dec0003f086fb0028d4d02e4b802252035a617c
:101dfc00cfe72c4b802252039a610221642003f01e
:101e0c007dfe264b00221a60e9e7214b1b785bb262
:101e1c00204a0021525e1c49097849b21b48002413
:101e2c00005f00f06ffcbde70e4b1a68144b19688d
:101e3c00124b186801f0defcbfe7c0463c3b0020ab
:101e4c00085c0000a41b002074230020183b002019
:101e5c00103b0020143b00201c3b0020f83a0020d3
:101e6c00283b00202c3b0020b70b0000905f0100aa
:101e7c00890200008a020000ffff0300243b0020bf
:101e8c00203b0020cc070000433b0020f63a00200a
:101e9c00423b0020fe3a0020701700000c3b002053
:081eac0060ea0000004400415f
:020000040000fa
:101eb4000023f0b506001500afb005910193059914
:101ec4000b78002b00d10fe101235b420a930eab88
:101ed40000240c93802309940b940d930b5d002b29
:101ee40001d0252b2ad1002c06d02200300003f08b
:101ef400ccfc059b1b190593059b1a78252a00d059
:101f0400e7e0013302930593022310219c4608273e
:101f1400059803782b2b1bd025d8202b1bd0232be3
:101f24001dd02a2b2ad003f0bdf90b90059b1a78fb
:101f3400303a092a33d801330593f7e70134cde762
:101f44000122099b80180393134309930590dfe74b
:101f54000423099a0ee0099b03933b430be0099b7e
:101f640003930b4307e02d2bead0302bd9d16246e3
:101f7400099b0393134309930130e7e72b6801306e
:101f84001a1d1b6805902a600b93002b07da099a27
:101f94005b420392012203990b934a400992099be5
:101fa400da0702d5022293430993059b1a782e2a55
:101fb4000ed10022581c0a9205905a782a2a28d158
:101fc400023305932b681a1d1b682a6003930a9336
:101fd40005a803f0c5fa059b0700187803f088feee
:101fe400692800d183e035dc632800d1d6e01bdc0e
:101ff400252800d1dfe0612859d0252306aa1370d3
:10200400029b0593002309930b93013b0a9302332c
:10201400b2e003f047f90a90059b1a78303a092a8e
:10202400d6d801330593f7e7642860d06728e4dc49
:102034002a00390006a803f0c3fb002800d1a9e058
:10204400059b09a95a1c05921b7806aa3000fef7c5
:10205400dbfa3de0702800d17de016dc6e2800d16b
:1020640091e06f28c9d12b000022390006a801f0a5
:10207400eefc002800d18de0059b06aa013309a9d6
:102084003000059302f04afc22e0752840d07828fd
:102094004fd07328b1d1802f00d07be0059b2a68f4
:1020a40001330593131d2b601268002364e02a009a
:1020b400390006a803f084fb002800d16ae0059be0
:1020c40009a95a1c05921b7806aa3000fef768ff7e
:1020d4002418019b1c19a34200dc74e04f223b4be3
:1020e4001a6001235b42019301982fb0f0bd2b00cd
:1020f4000122390006a801f0aafc00284ad0059b59
:1021040006aa013309a93000059301f0b5fddfe704
:102114002b000022390006a801f099fc002839d0d0
:10212400059b06aa013309a93000059302f080fe3d
:10213400cee72b000022390006a801f088fc002815
:1021440028d0059b5a1c05921b7806aa09a93000c1
:1021540000f0d7ffbce72b000022f02106a801f015
:1021640076fc002816d0059b079a01330593069b3d
:10217400134306d1164a163209a9300002f0d8fedc
:10218400a6e77823e1e7019b39001a1906a82b007a
:1021940002f0ccfc059b013305939ae7802ff9d11b
:1021a400059b013305932b681a1d1b682a6006aa38
:1021b40013700123e0e7802fecd1059b06aa0133bd
:1021c40005931070f5e7019479e6c046383b00208a
:0421d400745a000039
:020000040000fa
:1021d800f0b40125ed070f005f405ad48b4200d1bf
:1021e800824205d950404240504059404b405940e6
:1021f8004e18760ddf187f0d3bd0741c640529d06e
:10220800f41b352c26d80e0ddb022b43db0ac90242
:102218002943c9121700202c1ed2e741e24057403b
:10222800e3415a40a340e3405a40002480185941f2
:102238000ad3b21c520521d0c207012f62411700f0
:102248004008cb0718434908013636054208af4114
:1022580060417141f0bc7047203c06d01f00e74147
:10226800e3405f400024012a6741c0186141ebd375
:10227800dfe7002eeed129400020ebe701363105db
:102288000020e7e7e742e5d10020c143090dc90472
:10229800e0e76b400e00871a9e4104d26e40c01bd7
:1022a800b141d21973414e18df18ac0ae642e9d29f
:1022b800760d7f0d31d0f41b362ccbd8b4460e0ddd
:1022c800db022b43db0ac9022943c90a012c32d895
:1022d80004d1d4075208df073a435b08ef0a644287
:1022e800904199411ed0002239424dd124194041d4
:1022f80049410124394204d1013400184941394285
:10230800fad06246a24204d9361b013e3605891925
:10231800a0e7f10ac90700209ce736429ad10020bd
:10232800002197e70200224394d0b842ded2010090
:1023380020002024e3d1202c13dd203ce2411700ab
:10234800a240e2405740e3415a40a340e3405a408c
:10235800012fbf410137174300227c429841914128
:102368000ce01700e741e2405740e3415a40a340e0
:10237800e3405a407c429041994100220f0303d226
:10238800013e241940414941013e36054708ac4108
:0823980050417141f0bc704797
:020000040000fa
:1023a000f0b5de4657464e464546e0b583b080461a
:1023b0009246002939d0002837d0674a5268072052
:1023c0001040019045d15246002a00d1a5e0624854
:1023d000007e420705d560480425826a027e2a42b3
:1023e000fbd15d48448b04252c434483047e802527
:1023f0002c430476002291468b4201d95a1a914609
:10240000019a002a04d05b0849084a4652089146be
:10241000514d01242a7e2242fcd0002000274e4c40
:102420000426012500908b462fe00020002b69d068
:102430005246002a6dd0484a526807301040019039
:1024400000d17de0002900d080e0da0705d500202a
:1024500058e0ca075fd4002bf7d14046441ea04184
:1024600040420140afe77a004046125ad205d20df1
:10247000a262013712e0394aa26238e00098594658
:10248000227e2a42fcd000908b465f4527d0019add
:10249000002ae8d14246d25da2620137002bedd07e
:1024a00000985946227e3242fcd000908b46a26aa8
:1024b00001009842e9d20198002804d150464254c4
:1024c00001310091e1e7009948008446d205d20d20
:1024d000504661460a52009901310091d5e74a46bb
:1024e000002a09d0019a002ac5d1ff32a262012236
:1024f00052429446e144d1e7174902320b7e13421f
:10250000fcd0012003b03cbc90469946a246ab46a5
:10251000f0bd0020f6e70020f4e70f4b187e002303
:10252000420700d557e70c4b588b042420435883af
:10253000187e8024204318760023002291465fe70e
:102540004246002a00d03ee7019940e7ca0700d47e
:102550007be70020d6e7c04600180042ff010000dc
:020000040000fa
:1025600010b5694b9b7d002b17d0674b5b8b9b078e
:1025700014d5664b2022ff2199540132fd3999541c
:10258000624a2023d35c5bb2013300d18be05f4a07
:102590002023d35c062b00d19de010bd5a4b5b8bf2
:1025a000db0707d5594b2022ff2199540132fd3911
:1025b0009954e5e7544b5b8b5b0707d5534b2022bf
:1025c000ff2199540132fe399954d9e74f4a20230b
:1025d000d35c5bb2032b44d0042b0fd0022bcfd1a2
:1025e0001369002b04d09088002102f04ffcc7e74c
:1025f000464b9888012102f049fcc1e7434a9369a0
:10260000126993420cd0414a9168cc5c3e48282123
:102610004454013393610200d369002bfcd1afe72e
:102620003a4b5b69002b0ed0384b9b885b00012234
:102630001343354a5362d369002bfcd1334a20330c
:102640000321d1549ce7304a5168c0239b020b43bd
:102650005360d369002bfcd12c4a20330621d1547e
:102660008ee72a4a5369013bd2699a420dd0264a25
:10267000d369002bfcd1254ad36923482821415c2a
:10268000d068c1540133d3617ae71f4a5168e0230f
:10269000db020b435360d369002bfcd11b4a203370
:1026a0000621d154e3e720230021d154164a516872
:1026b000c0239b020b435360d369002bfcd1124b08
:1026c00083221a76114b5b6a002b00d165e70f4a13
:1026d000906a984761e71300002220215a54013183
:1026e0005a54094b83321a761900533a4b8b1340d4
:1026f000102bfbd1054b5b6a002b00d14de7034a41
:10270000906a984749e7c046001400424c3a0020be
:020000040000fa
:10271000f0b589b007000e0015001c00012003f081
:1027200023f9012003f06ef95a4b1b78002b35d1a9
:1027300059493a00703103a803f046fa002e00d13f
:1027400097e000230093013303aa0021002002f048
:102750009ffe2a00514903a803f036fa002c00d14d
:102760008fe000230093013303aa0d21002002f023
:102770008ffe4b4b186802f091fc02000b0047499a
:10278000103103a803f020fa00230093013303aab9
:102790001a21002002f07cfe09b0f0bd414b0193ec
:1027a000012300930f3334220021002003f0ecf8c2
:1027b00039493a00583103a803f006fa002e48d0f0
:1027c00000230093013303aa0021382002f060fea9
:1027d000354b01930126009610232a220021562012
:1027e00003f0d2f8314b01930096102334220d21cf
:1027f000002003f0c9f828492a005c3103a803f03f
:10280000e3f9002c2dd000230093013303aa0d21fe
:10281000382002f03dfe264b0193012300930f3335
:1028200034221a21002003f0aff81d4b186802f083
:1028300035fc02000b001849643103a803f0c4f909
:1028400000230093013303aa1a213f2002f020fe47
:10285000a2e70123009303aa0021382002f018fe0a
:10286000b6e70123009303aa0d21382002f010fee1
:10287000d1e70123009303aa0021002002f008fe03
:1028800067e70123009303aa0d21002002f000fe58
:102890006fe7c046b73b0020303f0000b03f00006c
:1028a000043b0020f8490000e04e0000604a0000b0
:0428b000c84a000012
:020000040000fa
:1028b40008d1002806d1f54204d801d3002a01d159
:1028c4006d0d09d10020c143090dc904f0bdf9d132
:1028d4001242f7d1640df5d00020c14349054908df
:1028e400a6e000206146f0bdf0b50127ff070e0009
:1028f4005e403e40b446be0a4c18dd18f442d7d2be
:10290400f542e4d2640decd06d0dead06419c9022d
:102914003943460dc0023143db023b43db0a10b4aa
:102924008e4685b297b26f43140c6c433e0ca419c7
:10293400260c2404bfb227439cb26c43a419190c7f
:102944006943250ca4b249190d04090c6419000c3f
:1029540095b245433e0c76193743bfb2360c150c7d
:102964004543ad19a6b2240cad192e0437432e0ce1
:1029740036199db24543ad19acb22e0c89191d0c04
:1029840045436d182e04290c3443704680b295b229
:1029940045433e0c76193743bfb2360c150c4543fc
:1029a400ad19a6b2ad19240c2e0437432e0c3619da
:1029b4009db24543ad19acb22e0c89191d0c45438b
:1029c4006d182e043443290c75462d0c90b26843bf
:1029d4003e0c80190604bfb23e43070ca0b23f1858
:1029e400120c6a43d019020c80b2240ca4189ab2b7
:1029f4006a43121914042043120c89181b0c6b43ec
:102a0400c91810bc01273d05294203d1b61940411c
:102a14004941013cff077d0d013d641b0bdb6d004b
:102a2400ac4209da240500254208be4168416141ef
:0a2a340066463143f0bd54e74ee75b
:020000040000fa
:022a3e00fee7b1
:020000040000fa
:102a4000f0b5c64600b5574b9b7d002b17d0554ab5
:102a5000137edbb2927d52b2002a13db514a137e01
:102a6000dbb2927dd20702d5db0700d582e04d4a6a
:102a7000137edbb2927d520701d55b074bd404bcb9
:102a80009046f0bd5bb2002be8da464b5b8b072229
:102a90001340e3d0444ce38502f068fe414b8422ae
:102aa0001a752c230022e254636a002bd6d03e4aca
:102ab000906a9847d2e7bb68f35c0b859368013353
:102ac0009360936898460b7e23420bd0404509d90a
:102ad0004b682b40012beed163469b685b009b5bf0
:102ae0000b85ebe7304b9a685b689a42bfd32e4b5d
:102af00000221a755a602b4a01211175db68002be0
:102b0000b5d0294a10699847b1e727490a6a896907
:102b10005200535215e0244a2c23d35c002baed034
:102b2000214b1a6adb699a42a9d21e4a138d9bb2c5
:102b3000516807220a40012ae7d01b4a116a9269ac
:102b40005354194b1a6a01321a621a6adb699a42a3
:102b500000d094e7144b00222c215a54da61114a18
:102b6000583111755b6a002b00d188e70e4a906ad4
:102b7000984784e70c4b1b7d002b00d177e70a4b6d
:102b80009a685868074b1b7edb07abd58242a9d2f7
:102b9000054b1e68034907259c461f001a000124a7
:0c2ba00096e7c046001c00421c3a0020d2
:020000040000fa
:102bac00f0b5de4657464e464546e0b587b08346ff
:102bbc008a46904656000322961b00250496a94689
:102bcc0043e04b469b00049a9446634406330493bb
:102bdc0043469cb25346e518adb201222900029837
:102bec0002f01cfb5b46e618b6b2012201993000dc
:102bfc0002f014fb5b461f1bbfb201220199380087
:102c0c0002f00cfb01222900039802f007fb53464b
:102c1c001d1badb201222900039802f0fffa01221c
:102c2c00059c2100380002f0f9fa01222100300045
:102c3c0002f0f4fa01222900029802f0effa0123c3
:102c4c009c46e14443464b4557db4b469cb25b46a6
:102c5c001b1998b243469eb25246b3189bb201223e
:102c6c0003931900029002f0d9fa5a46b718bfb272
:102c7c00524613199bb2012201931900380002f03d
:102c8c00cdfa5a46951badb201220199280002f0eb
:102c9c00c5fa5a46131b9bb20122039903931800e1
:102cac0002f0bcfa5246961bb6b2012231000398d0
:102cbc0002f0b4fa5246141ba3b21c000593012275
:102ccc001900280002f0aafa01222100380002f0b3
:102cdc00a5fa01223100029802f0a0fa049a002a07
:102cec0000dc6ee74346013b98464946cb1a9b00f5
:102cfc00944663440a3304936ae707b03cbc90469d
:082d0c009946a246ab46f0bd5a
:020000040000fa
:102d1400f0b583b04d4b1b78dbb2062b2dd89b004e
:102d24004b4ad3589f464b491d230b7063334b705a
:102d340002220e2002f0c6fb02f058fd0028fbd14f
:102d44000521643002f0defe052002f0d5fb0028e8
:102d5400fad040491b230b70d5334b7002220e204e
:102d640002f0b0fb02f042fd0028fbd100213a48fa
:102d740002f0deff354b01221a7003b0f0bd0521cd
:102d8400642002f0bffe314b02221a70f5e70520e1
:102d940002f0b2fb0028f0d002f028fd0028ecd1ac
:102da4002c4916230b702d4b00221a70013200920d
:102db4000e3002f033fb254b03221a70dde7284b5b
:102dc4001b78002bd9d0264b00221a70254b802269
:102dd4009203da61244c254da71d012600962b0091
:102de400320021000e2002f019fb02f0fffc002843
:102df400fbd101340135bc42f0d1144b04221a70ca
:102e0400bbe7124b01221a70b7e7164b80229203dc
:102e14009a61fa200621c00002f074fe012000f03d
:102e240085ff0a4b06221a70a7e7062002f064fb0e
:102e34000028a2d00b4b802292035a61002000f09c
:102e440075ff024b01221a7097e7c046443b0020ed
:102e5400585a0000483b0020515b00004c3b0020c6
:102e6400473b002000440041b03b0020f03a0020e2
:020000040000fa
:102e7400f0b583b0002002f095f902f083ff02f070
:102e8400fffe02f0f5fe00213f4802f069ff02f068
:102e940021fe00213d4802f05dff02f00ffe3c4b95
:102ea40001221a603b4b31321a6000213a4802f089
:102eb40033ff02f0ebfd394c200002f093f92000bf
:102ec400083002f08ff92000103002f08bf902f084
:102ed40089fd334f00260196314d00f0adf9fef720
:102ee4004bfefff715ff2b78002b1bd1019802f046
:102ef40003fb00281ad12b4b1b78002bedd0294b58
:102f04001e70294b5b8829485843294900f0baffb1
:102f1400f538ff3802f0a6fc264901f0def9264b0d
:102f24001860d9e73e7002f0bdfddfe7184b0122bf
:102f34001a60184b31321a60204b1b78204a1478df
:102f44001c19e4b21470621e622a02d95b421b4a45
:102f54001370632c0ad902f0c9fd1a4b1b6b9b0337
:102f6400c9d4013080b2174b5867c4e702f0befde4
:102f7400144b1b6b9b03bed46043642101f0f8f92e
:102f8400104b5867b7e7c046555c0000195800005d
:102f9400943a0020b03a002059500000205b000011
:102fa4003f3b00203e3b0020003b0020e40c00009f
:102fb400ff0f000000002041043b0020b63b00202e
:082fc400af3b00200028004291
:020000040000fa
:102fcc000122d20703004b403dd430b4431a01d246
:102fdc00c01ac9184b004400240eff2c29d0002c19
:102fec0024d01b0e20d0e31a182b1ddc0902114330
:102ffc00c40d000210435d4219350a00aa40d209e3
:10300c00d940451801d36d080234013ce405280a67
:10301c000121c9072d062a438a4160414100090e4e
:10302c00ff2901d3c00dc00530bc7047c00fc007cd
:10303c00fae742001823da41ff2af5d07f2000017d
:10304c000c300005f0e7a4465140431a02d253401d
:10305c00c01ac9184b00090211431b0e4400240e60
:10306c00ff2c41d0002b10d05b421b19012b10d32d
:10307c0022d1c30d4002401a10d3db050100400ad7
:10308c00c90591415841644670472442fbd1002048
:10309c00f9e7c30d40024900401af4d00021013178
:1030ac004000fcd38c4204d95b1adb05400ac018e3
:1030bc00e9e7180ac007e6e7192be4d801330c003e
:1030cc00d940dc414c40012c4941c30d0002104356
:1030dc00441a01d4a4006408013bdb05200a240631
:1030ec009441584164467047ff2b01d04102cad02d
:0a30fc007f2000010c300005c5e73d
:020000040000fa
:10310600f0b58fb00d934b680c9006938b680d004d
:103116000793cb6816000393069b0f68002b44dbce
:1031260002239f4310233b400a93079b04930a9b69
:10313600002b07d0726833681343079a02d0130036
:10314600023b049308233b400b935a1e9341049a77
:10315600d31a04933368039a0893736809932b6907
:103166005c1e00231355069b0593012c20dc0a9b4d
:10317600002b52d10b9b002b03d02023039a013c3a
:1031860013552b6900975a1e039b121b19190c988d
:10319600079b01f0f2f90c9b5b68db0503d56b68b6
:1031a600984200da18000fb0f0bd01230693b9e784
:1031b600089b099a13430cd1059b002b09dc069a40
:1031c600049b9b1a059a9b18002bd0dd02231f42f5
:1031d600cdd00f22089b013c134018005730092b15
:1031e60001dc303318000d9b413b192b06d82023f8
:1031f6000343613b192b01d802f080fd039b185550
:10320600059b013b0593099b1a07089b1b091a435b
:10321600099b08921b090993a7e70cce1343a9d073
:10322600039b0d9a1b19013b1a703023039a023c2b
:0432360013559fe7a6
:020000040000fa
:02323a00fee7ad
:020000040000fa
:10323c0000b583b0434b1a78042a00d97fe0930081
:10324c00414ad3589f4602f0f5fa002803d13d4b72
:10325c0004221a7073e03d4b80221a703c4b002202
:10326c001a700121022002f0d5fb0021012002f08e
:10327c00d1fb344b01221a7061e0344a1378043bc1
:10328c005bb21370002b17db022002f0b5fb02f0cf
:10329c00a1fc2f4b0021595689b22c4b00201856fb
:1032ac0080b22c4b0193012300933f33802202f018
:1032bc0065fb01f067fb42e0fa200321800002f07d
:1032cc001dfc204b02221a7039e0032002f010f989
:1032dc00002834d0022002f08ffb02f07bfc01f0be
:1032ec0051fb0421642002f009fc0121022002f0b0
:1032fc0091fb0121012002f08dfb124b03221a706d
:10330c001de0154b1b6a5b040ad413498022d201c1
:10331c000b6a1342fcd0114a137801214b401370f5
:10332c00042002f0e5f8002809d001f02bfb042161
:10333c00642002f0e3fb02e0024b05221a7003b09a
:10334c0000bdc046403b0020f45b00004a3b00201f
:10335c004b3b00202c14000000440041b73b0020e4
:020000040000fa
:10336c002f4b0e229a821a000223d1680b42fcd0fa
:10337c002b4b00229a612b4b2b4a5a602b4a9a609a
:10338c001a0053785bb2002bfbdb254a938c80210f
:10339c008b4393841023d1680b42fcd0244b1b68c5
:1033ac009b0e3f2b3ad09b028022920013431c4a67
:1033bc0093621c4b8222d2015a80194a1023d16885
:1033cc000b42fcd0164b1b4ada621a001023d16850
:1033dc000b42fcd0124b06229a841a004023d1686f
:1033ec000b42fcd00f4b144a5a601a0053785bb254
:1033fc00002bfbdb0b4b114a5a80114a5a80114aa5
:10340c005a80114a5a80114a5a80114a5a80114bdb
:10341c00114a1a62024b00221a627047203bc2e723
:10342c0000080040000c00400105090001200000cc
:10343c00246080001bb7010400070900174000003e
:10344c0018400000194000001b4000001c40000008
:0c345c001e40000000040040e01c0100c5
:020000040000fa
:1034680010b588b00400012002f07afa012002f0b9
:10347800c5fa012c34d0002c07d0022c4ad0324b8c
:103488001b78002b1cd008b010bd2f4b1b78002bcd
:103498000ad02e4b0193012300930f334e220021b3
:1034a800192002f06dfaeae703aa294b183313cb67
:1034b80013c211001a680a609a888a809b798b71f6
:1034c80003a802f0ebfbc300c01a8030400880b2aa
:1034d80000230093013303aa002101f0d5ffd2e7ae
:1034e800194b1b78002b0ad01a4b01930123009328
:1034f8000f334e220021192002f042fabfe703aa37
:10350800134b2c3313cb13c211001a680a609b8823
:103518008b80d5e70c4b1b78002b0ad00e4b019300
:10352800012300930f334e220021192002f028fabc
:10353800a5e703aa064b403313cb13c211001a8820
:103548000a809b788b70bbe7b73b00207040000077
:0c355800303f00000c410000a8410000c2
:020000040000fa
:10356400f0b5060085b00f0015001c008b4265d82d
:1035740001d1824262d82100280002f017fb3900f1
:103584000090300002f012fb009b21001b1a1a006d
:103594002800039302f0fefa00900191019bbb42c4
:1035a40046d802d1009bb34242d8009b019c039aa7
:1035b40001200021f61aa74102f0ecfa039b002b2c
:1035c4002fd0019b009adb0754081c43019b5d0824
:1035d400039b9c46bd422ed801d1b4422bd8320065
:1035e4003b00121bab41012692185b410027b61821
:1035f4005f4101235b429c446346002bead180195e
:103604007941039a04000d003000390002f0b6fa43
:10361400039a06000f0002f0bdfa241a8d4120001f
:1036240029000a9b002b01d01e605f6005b0f0bd2d
:1036340000200021c2e7b6197f41dae7002000210b
:02364400efe7ae
:020000040000fa
:02364600fee79d
:020000040000fa
:10364800ffffffffff3fdf07f91f5f5f5f415b5b26
:103658001bfbffffddbb77ff016d6d6d01ff07fff2
:1036680001ffffbd9da5b93db5ad9dbdff03ff01a0
:10367800ffffff01fd9d63df69a9039959ebffff78
:10368800ff6b4bdbf1bb9b4fcbdb519bdbfbffffa6
:10369800fb8babababab01abababab8bfbff3fdfa0
:1036a80003b9dfe7ebef01efefefffffffffffffee
:1036b800ffffffffffffff80ffb095d5e5f5e5d5dc
:1036c800d0bfffffbfcff3bfd8ebf3cbb8ffb0bf7e
:1036d80080ffffbdbd9dddc0ddcdedefffb0bf803c
:1036e800ffffbfa8adadaead86aaabacafaebdff18
:1036f800ff9feef4fb83d3d5d6d6d5d583fbffff4a
:10370800fbeaeaeaaaaa80eaeaeaeaf1fbffffff93
:1037180080fffdfdfdfd80fdfdfdfdffffffffffbf
:020000040000fa
:10372800f0b5de4657464e464546e0b585b00190b1
:10373800141aa34602915c1aa2460124a0465c46cc
:10374800002c10dd012203925246002a13dd574651
:10375800da4500da5f463b000133994645d4002636
:103768000025002414e0002c31d0821a934601224f
:1037780052429046e6e75246002a20d0cb1a9a4693
:1037880001235b420393e2e70134a4b24c452cdced
:103798006b4619899888012201f042fd5d44564420
:1037a800bd4203dded1b019b43440193be42ebddab
:1037b800f61b029b039a944663440293e4e75b4634
:1037c800df43ff171f407b1c99460392c7e7524609
:1037d800d846002acfdd5346df43ff171f407b1c26
:1037e8009946d84601230393b9e705b03cbc9046f7
:0837f8009946a246ab46f0bd64
:020000040000fa
:10380000f0b5d6464f464646c0b506000c00170038
:10381000022002f0a9f8022002f0f4f8012002f0e0
:10382000a7fa274b1d78bf1bb800c01980000134d0
:10383000a11b00f09ffd14283dd8ad00214be8509e
:1038400000241f4b9a461f4e7f2553461978a0b27d
:103850000b1b7f33da17520e9b182b409b1aff224b
:1038600013409b009b5998463b234746df1bbfb242
:10387000b846471cbfb2bc46091b8031cf177f0e2c
:10388000b94649442940c91b114089008959591a30
:1038900089b243466246fff747ff01347f2cd4d1fb
:1038a00007490a7801327f2313400b701cbc9046f5
:1038b0009946a246f0bdad00024b1422ea50bfe784
:0838c000413b00200437002009
:020000040000fa
:1038c800f0b5de4657464e464546e0b583b0019012
:1038d80089469b460c9b9a4600230b600124013bba
:1038e8005b4498461ce001239c4606e001239c4665
:1038f80003e06346bc4617001a00bb009b58984279
:1039080036dd4b461b680e2b34dc591c48460160db
:103918009b0001995c5063460133e41800e00134d0
:10392800a04529dd2500a300d0585045f7ddd11862
:10393800043909688842f2dd671cbb45d3ddd1181c
:1039480049688842d2d10833d3185946091b8c4696
:1039580001216746944601314a19b942c9d0043356
:103968001e1f3668b042f6d0170062468c46c4e780
:103978003c00d5e73c00d3e703b03cbc90469946f1
:06398800a246ab46f0bdb3
:020000040000fa
:10398e00f0b40125ed070c005c402c40a446ae0ab5
:10399e004c18df18f4423dd2f74245d2640d4cd09c
:1039ae007f0d3cd0e41bc9022943cf0adb022b4317
:1039be00db0a0600b61a9f4104d2013cb6197f41bc
:1039ce00b6185f416812800d241838dd0018844245
:1039de0025d8e80c0021b6197f41b61a9f4103d3b2
:1039ee0040414941f7d304e0b6185f410018494100
:1039fe00f1d32405b6197f41b61a9f4105d337433b
:103a0e00c20717430022012f504161416246114304
:103a1e00f0bc70470cd100280ad1f74208d2002022
:103a2e00c143490d0905f1e7002a01d1f74206d03d
:103a3e000020c143090dc904eae77f0df8d000202c
:043a4e006146e5e701
:020000040000fa
:103a520010b588293cd015dc81294dd003dc8029a2
:103a62004ad0002010bd822911d08429f9d11968c9
:103a7200002a26d00a1d1a6000228b5e0360db1723
:103a8200436011e0a02930d010dc9029e9d11968f7
:103a92000724002a2ed00919a1430a0008321a600d
:103aa2000b684c68036044600120dbe7c02901d049
:103ab200f029d6d11a68111d19601368036000231a
:103ac200dee70c1d1c600b689bb203604260ebe7f3
:103ad2001968002a04d00a1d1a600023cb56cde7cc
:103ae2000c1d1c600b68dbb2efe71a68111d196030
:103af2001368c3e70731cfe71968002a03d00a1d0c
:0e3b02001a600b68bae70c1d1c600b68dde74b
:020000040000fa
:103b100030b405004d400124e407254042004b002d
:103b2000120e32d01b0e3cd0ff2a33d0ff2b3fd0d9
:103b3000d21800022043000a09022143090ac4b234
:103b40004c43000ac3b24b43000a4843210a5b18a6
:103b5000190a091801d44900013a080a7f3a2adbf8
:103b6000fe2a0fd2d2051c43240601d00124214392
:103b7000c9b280295041802901d140084000284322
:103b800030bc7047ff20c005f9e71b0eff2b0ad0a1
:103b90002800f5e7400206d1ff2bf3d1490202d1fc
:103ba000f0e7ff2af4d17f2000010c300005e7e7a1
:103bb0004902f8d1e6e743020132e9d15b12023350
:063bc000e6d9d805e4e798
:020000040000fa
:023bc600704746
:020000040000fa
:103bc8004b005b0d264af0b55c1e944238d8254a56
:103bd8009e1825d4332e22dc234a9b1827d4234a47
:103be800da400700214b9743f3403c000f000240a6
:103bf8009f4319403d000a430fd0002f0dda2023c0
:103c08005b42f11824d480204003c8400200802180
:103c18004903f1400b00a4185d4120002900f0bdc4
:103c28000020002901db0021f9e71149f7e72022ec
:103c38000e4b921b934001225242f2401a43d0e7a6
:103c4800002becd10022c90fcb0710001900e6e7c2
:103c580020218020891b400388400200d7e7c04606
:103c6800fd07000001fcffffe1fbffffffff0f0066
:043c78000000f0bf99
:020000040000fa
:103c7c00f0b54b6889b005930b6807009c46079319
:103c8c00cb680c008e68049310685168cd0f44d03b
:103c9c000b000200002150429941059b002b08dbd0
:103cac000222634693430793002d02d1079b5a07c8
:103cbc002ad5731e07aa02920a22009301920b00c6
:103ccc000200200000f0d8fb002d02d1079b5a0700
:103cdc001ed501382d23002d00d1023b049a13541c
:103cec0023695a1e049b121a1918079b380000935b
:103cfc00330000f03ffc7b68db0503d5636898421a
:103d0c0000da180009b0f0bd1b07db0ff31ad1e77e
:103d1c001b07e5d501382023e0e7059b002bbfda14
:023d2c00c4e7ea
:020000040000fa
:023d2e007047dc
:020000040000fa
:103d300030b589b000283bd0002001f015fe0020ee
:103d400001f060fe224b1b78002b26d103ac214be7
:103d5000220023cb23c219681160998891809b7936
:103d60009371200001f09effc300c01a803040080c
:103d700080b20123009322001c2101f089fb012164
:103d8000002001f04dfe0021012001f049fe00213c
:103d9000022001f045fe09b030bd0f4b0193012315
:103da00000930f3370221821082001f0edfde6e7a3
:103db000002001f0d9fd0021002001f031fe012199
:103dc000012001f02dfe0121022001f029fee2e791
:0c3dd000b73b0020303f000048360000e8
:020000040000fa
:103ddc00f0b5de4657464e464546e0b585b00390f5
:103dec0000910192190002930eab1a7892460f9a29
:103dfc0091460022934601329046002926d105b007
:103e0c003cbc90469946a246ab46f0bd5346e018e2
:103e1c0080b2009901f0d4fb0134a4b2a54208d0c1
:103e2c003a5d4b461a4143461a4013003343f3d0d4
:103e3c00ece7b246b9465b4601339bb29b46009b0e
:103e4c0001339bb20093029b5b45d8d0019b002ba6
:103e5c00f1d05b46de08019b5e43b6b2f518adb2fd
:103e6c00340007275b461f40039b9e1b3a004f46be
:0a3e7c00330056469a469146d2e7fd
:020000040000fa
:103e8800002941d010b4041c4c40a4460123002250
:103e9800002900d54942002800d5404288422cd349
:103ea80001242407a14204d2814202d209011b0144
:103eb800f8e7e400a14204d2814202d249005b0043
:103ec800f8e7884201d3401a1a434c08a04202d3ab
:103ed800001b5c0822438c08a04202d3001b9c08ec
:103ee8002243cc08a04202d3001bdc08224300284e
:103ef80003d01b0901d00909e3e7101c6446002c14
:103f080000d5404210bc704701b5002001f04effbb
:103f180002bdc0460029f7d003b5fff7b3ff0ebcba
:083f28004243891a1847c04604
:020000040000fa
:103f3000467265652046616c6c20646574656374c7
:103f400065640000256c640050757420796f75728b
:103f50002046696e676572206f6e00004d6f766552
:103f60002046696e67657220636c6f7365000000a0
:103f700043616c63756c6174696e672e2e2e000050
:103f80002532642525000000253364002533642094
:103f90002525000025332e31662027430000000030
:103fa00048522020203a202533642062706d0000a2
:103fb00053704f32203a202533642025250000001d
:103fc00054656d70203a202025332e31662027431a
:043fd0000000c046e7
:020000040000fa
:103fd400f0b589b00290039114001e000eab1f7857
:103fe4001f4b1b78934237d001231d4801389db2e3
:103ff4001a000133c15ca142f9d15e2d2ad8d10047
:10400400891a184c0919072204a801f00ffee900c7
:10401400491b154b9c466144091907220f2002ab2a
:104024009c46604401f002fe002f0ad004ab162126
:1040340002aa944661441a78d2431a7001338b421f
:10404400f9d104ab01930096102307220399029837
:1040540001f098fc09b0f0bd00250022cfe7c0466e
:0c406400503b0020d80000009902000032
:020000040000fa
:10407000045556540422eaaabfaaea220080be9040
:10408000ff08a6ab9a968ae682008092929292925c
:10409000ff919199d180008888ff4800cf525252f9
:1040a00052d2100004fd2624e44430cf08c838085a
:1040b000000000000000ff10101010100000000fa2
:1040c000050f00080702020a0f00000807000f0092
:1040d00000020400080f00000000000008080f00a4
:1040e000000000000008080f00000f090909090f6f
:1040f00000000c03040c070808040302040800086d
:0c410000080808080f080808080c080050
:020000040000fa
:10410c00809292929292ff919199d180008888ff2f
:10411c004800cf52525252d21000888cbaabea2ac5
:10412c002feaaaba8808004869da0000fe121212b7
:10413c00f1191000202020202020202020203020c9
:10414c00005e565afe5a569e80ff888c88000000ee
:10415c00000008080f00000000000008080f000015
:10416c000f090909090f0000020a0a060300000fd3
:10417c000202020200080403040a090808080b08da
:10418c000800000000000000000000000000000d0e
:0c419c00010d010d010f040404040f00cc
:020000040000fa
:1041a8001010ffb5b5f5b5b5b5ff1010000811c270
:1041b80000fe2a2afe00fe00ff0000fc848484849e
:1041c800ff848484fc000020108847241c84641c1d
:1041d80004fe04008a6aff29004844ab526a46c0bc
:1041e8000004f656ff55f50008ff08fc0800080a09
:1041f8000b0a0a0f0a0a0a0b0a08000c0300080532
:104208000105090009080f000000000000000f0068
:104218000000000000000108080402010408080763
:10422800000001000f000809090405020100000947
:0c42380009090f050509040b0807000028
:020000040000fa
:10424400f8b5de4657464e464546e0b582460c0074
:1042540010001d000a68514600f0cdf904235b42aa
:10426400534498460120404281466b429c461ce0e0
:10427400012676420fe02268561c26603f689200b1
:104284005646975104338b420bd01f001a68461cc4
:10429400eed046463668921baa42ecdc9445f1dd2a
:1042a400e9e7013004239b46d844216849450bdde6
:1042b40001239b46d9444b4623608945f1da4346a2
:1042c400043389005144e0e7504600f029ff3cbc28
:0a42d40090469946a246ab46f8bd9d
:020000040000fa
:1042de0030b405004d400124e407254042004b0058
:1042ee00120e26d01b0e34d0ff2a2dd0ff2b35d028
:1042fe00d21a000220430902214343084908a00da7
:10430e005b1a02d2013a5b005b185b008b4200d352
:10431e005b1a4041f9d37f3222ddff2a06d2d20545
:10432e00c91a8b425041284330bc7047ff20c0054c
:10433e00f9e71b0e03d0ff2b12d1490210d07f20bc
:10434e0000010c300005efe74002f8d1ff2bedd154
:10435e00f5e7ff2aead14002f1d1e7e74902eed1b3
:04436e002800e1e75b
:020000040000fa
:10437400002934d00123002210b488422cd3012414
:104384002407a14204d2814202d209011b01f8e7a9
:10439400e400a14204d2814202d249005b00f8e762
:1043a400884201d3401a1a434c08a04202d3001b8e
:1043b4005c0822438c08a04202d3001b9c082243c1
:1043c400cc08a04202d3001bdc082243002803d0ff
:1043d4001b0901d00909e3e7101c10bc704701b5a3
:1043e400002001f0e5fc02bd0029f8d003b5fff779
:0c43f400c1ff0ebc4243891a1847c046a6
:020000040000fa
:1044000010b51e4b1e4a1a60c02292011a6100218b
:104410004c229954013299544b3a4e201a5401308f
:104420001a54013a02301a54033019540130195405
:1044300001301a5401301a542138195401301954da
:10444000013040241c54023019543b311838585460
:104450008d315a5401315a5401315a5401315a5450
:104460000b315a5401315a54b332c6399954813af6
:10447000a4315a5406315a5410bdc046004400417c
:0444800000303200d6
:020000040000fa
:10448400f0b5050085b019000c9b100001931a6863
:104494002b696c68013bef681d00002c00da0124d5
:1044a4000026fe540a9e0123361b0296022616405d
:1044b4000b9ad2170392002d04dc002b17d028008e
:1044c40005b0f0bd02000a4307d1002c05dc029ab6
:1044d4001219002af1dd002eefd00b9a039b00f095
:1044e40001ff013d130030327a55013ce3e710230c
:0e44f400019a12689a431300019a1360dfe7e1
:020000040000fa
:104504001a4b01221a701a00537e5bb2002bfbdb9c
:10451400174b1a68174b1b68db0e07211140490122
:104524000b435201e021c9000a4013430f4a13858b
:104534000323d370013b53700f4b1361537e5bb263
:10454400002bfbdb094be022d2009a801a00537e39
:104554005bb2002bfbdb054b0f221a760e3ada75a1
:104564001a00537e5bb2002bfbdb70470040004215
:0c45740024608000206080000218010f0d
:020000040000fa
:10458000f0b51d00012389b014000e9a06001a40f0
:104590000391029201d1a5420ad82200039930006a
:1045a00001f075f9a54203d82500280009b0f0bd37
:1045b0002f1b01973a00102f00d91022202104a8a8
:1045c00001f068fb019b0f2b0ed80f2204a93a4083
:1045d000300001f05cf9029b002be6d12200039928
:1045e000300001f054f9e0e7102204a9300001f096
:0a45f0004ef9019b103b0193e4e734
:020000040000fa
:1045fa00f0b5d6464f464646c0b588469146012a8a
:10460a002ddd0b00043b9a4601220ae01400a400a7
:10461a0043466146e150013204239c46e2449145f7
:10462a001dd053469b689c46002aefdd9f00c719a0
:10463a0053465d68ab001b58396899420ddd5346f5
:10464a0014009d60013c002ce1d01d68043bae00c3
:10465a0036583968b142f4dcd9e71400d7e71cbcf4
:08466a0090469946a246f0bdfe
:020000040000fa
:10467200f0b5d6464f464646c0b582b08246894618
:1046820001292add04235b425344984601270ae0ac
:104692003d00ad005346019aea50013704239c467f
:1046a200e044b94519d0434698680190002fefdde8
:1046b2005e68311c00f0feff44463d000028e8d051
:1046c200a660013d002de4d0043c66680199301ccf
:1046d20000f0d9ff0028f3d1dbe702b01cbc904602
:0646e2009946a246f0bd5e
:020000040000fa
:1046e80010b5bff35f8f62b6184bc32080001a580d
:1046f800ff218a433f390a431a50802252011a6027
:104708001a58134c2240c02109040a431a50802227
:10471800d2011a6004301a582240114319508022dd
:10472800d2021a601a581202120ac02109060a4354
:104738001a50802212031a6004301a581202120a00
:104748000a431a50802212041a6010bd00e100e0ea
:04475800ffff00ff60
:020000040000fa
:10475c0070b500282fd0194b1a7d0023002a26d1c2
:10476c00164b1860596001321a75154b1b7edb070e
:10477c0016d500291dd00023114c0726012507e072
:10478c00c25c22850133227e2a420ad0994208d982
:10479c0062683240012af3d15a00825a2285f1e72d
:1047ac000023064a9360064b01229a7501231800d8
:1047bc0070bd0b00f5e70023f9e7c0461c3a00205a
:0447cc00001c00428b
:020000040000fa
:1047d000f0b5c64600b582b0164b1d6801ab164a4f
:1047e0001188198092789a70144a80218901516148
:1047f0009b78b72b16d8160080277f01b846434612
:10480000736101ac0321200001f09afab7618021a5
:10481000280001f095fa8035a3780133dbb2a3704c
:10482000b72becd9054b802292019a6102b004bcef
:104830009046f0bd083b0020b05d00000044004100
:020000040000fa
:1048400010b588b00400022001f08ef8022001f0bb
:10485000d9f8012001f08cfa002c23d06001124914
:10486000fff788fd80b2021c182800d9182292b2e6
:1048700026214020fef79af90c492200143103a8a2
:1048800001f0a2f903a801f00dfac3001b1a5b089e
:104890004020c01a80b200230093013303aa2021d4
:1048a00000f0f6fd08b010bd905f0100303f000041
:020000040000fa
:1048b0000021f0b5174b184a934208d30027174a36
:1048c00013685168002b05d1002903d1f0bd197080
:1048d0000133f1e7100095680c305c18002d16d0fc
:1048e0000b25ed1a5219a3420ad10b0003221340e3
:1048f0005a1e934189085918890040180200dfe7c1
:104900005d1cae5c1e702b00ede71f700133a342ef
:10491000fbd1f3e700000020000000202c1800006d
:020000040000fa
:10492000f0b50b680c008f68cd68496887b0060049
:104930000593002902db02218b43059305a95368e7
:10494000126802910821009701912000fff79afd5b
:10495000059bdb0602d5302301382b54059b1b0732
:1049600002d5202301382b54236929185a1e059b90
:10497000121a009330003b00fff702fe7368db055c
:0e49800003d56368984200da180007b0f0bd56
:020000040000fa
:10499000f8b5154b1b78002b00d1f8bd01f062f97a
:1049a00004008022d200002101f074f90f4e104b58
:1049b000f7188020c0003500335c012b0ad00d4b66
:1049c0009c466644be42f6d1fff702ff064b00222a
:1049d0001a70e2e70023e25ce95c0a43e254013327
:1049e0008342f8d1ebe7c046463b002000000020a0
:0849f000030c000001040000ab
:020000040000fa
:1049f80000e00000f8090204001020c000de12f2f6
:104a08005e408c50ff00ff4884004869da007a4a0b
:104a1800caffca4a7a02004c3404545df6542c4446
:104a2800344c04000300000007080808080f0400bd
:104a3800000f04070a08040201000f080e0008040a
:104a480003040a09080b08090b0800010101010108
:084a58000f0101010101010041
:020000040000fa
:104a600000fc0808fc0b09f80808fc000008547357
:104a700056d656765616f202000008118200fe6adb
:104a80007f6a7f6a7e200000fe0a8abeaaabaabea9
:104a90008a0a0a000407040407040407040407043c
:104aa00000040405050f0505040403040e000c03af
:104ab0000806010f090503050b09000c0308080887
:084ac0000502020504080800cc
:020000040000fa
:104ac800301ff1bdb5ff103eaabfaabfaa3e000025
:104ad80000000000000000000000000000000000ce
:104ae800000000000000000912a400bfa1a9ada7a2
:104af800a9a1bf0000080702090f00080b0e0a0e43
:104b08000b0800000000000000000000000000008a
:104b18000000000000000000000000080701080f66
:084b2800080f08080f080f0830
:020000040000fa
:104b300010b584291fd007dc812915d0822922d005
:104b4000802911d0002010bd90291cd008dc8829b4
:104b5000f8d119680c1d1c600b6803601a7010e016
:104b6000a02901d0c029edd119680c1d1c600b686b
:104b700003601a6005e019680c1d1c600b68036077
:104b80001a800120dfe719680c1d1c600b680360a8
:084b90001a60d2175a60f4e725
:020000040000fa
:104b980030b589b005000c00022000f0e1fe0220cb
:104ba80000f02cff012001f0dff818222621402018
:104bb800fdf7f8ff642068432100fff761f9020060
:104bc8000b49503103a800f0fbff03a801f066f879
:104bd800c3001b1a5b084020c01a80b20023009350
:104be800013303aa202100f04ffc09b030bdc046b4
:044bf800303f00004a
:020000040000fa
:104bfc0010b54021092000f0d1fe4021092000f021
:104c0c00cdfec021022000f0c9fe0021032000f0df
:104c1c00c5fe0021042000f0c1fe0021052000f09b
:104c2c00bdfe0021062000f0b9fe0f21082000f087
:104c3c00b5fe0221092000f0b1fe27210a2000f068
:104c4c00adfe24210c2000f0a9fe24210d2000f043
:044c5c00a5fe10bde4
:020000040000fa
:104c6000144b01221a601a00d369002bfcd1114b9e
:104c7000802252005a601a00d369002bfcd10d4be0
:104c8000e822da600c4a1a601a00d369002bfcd1c2
:104c9000084b10225a831a00d369002bfcd1074b12
:104ca000002221215a5401395a54024b83329a75f9
:104cb0007047c04600140042160010004c3a002015
:020000040000fa
:104cc000f0b5d6464f4680b583b00d0092460aaa8d
:104cd000167852468218802a1ddcca18402a1adc2f
:104ce000002b18d093b299465346c718bfb2019013
:104cf00003e00135adb2a9450dd0019c5346002b10
:104d0000f7d032002900200000f060fc0134a4b28a
:104d1000bc42f6d1ede703b00cbc91469a46f0bd1b
:020000040000fa
:104d2000f0b59bb004000d00160000214c2207a82e
:104d30001f0000f0afff01235b4202930433ff33f7
:104d40000393002c00d101ac0023049405959d42ef
:104d500000d06b1e0693002d06da4f220120074b70
:104d600040421a601bb0f0bd00233a0023703100ae
:104d700002a80894079400f0f7fef3e7383b002000
:020000040000fa
:104d800000230e4a10b513600d4a13600d4a1360dc
:104d90000d4a13600d4a13600d4a536213610133cb
:104da0009360fef7c4fffef7c2ff0a4c0a4b9c4219
:104db00000d310bd08cc9847f8e7c046343b00202c
:104dc000d8390020d4390020cc390020d039002037
:0c4dd000dc390020bc000000c000000026
:020000040000fa
:104ddc00114b124a1a60124a9a81c02292025a60ee
:104dec001a00d369002bfcd10b4a136802210b4328
:104dfc001360d369002bfcd10a4b00229a61da6153
:104e0c001a622c215a545a621a605a609a601a75a6
:104e1c00da60da857047c046001c0042040131405c
:084e2c002bf6ffff1c3a0020e9
:020000040000fa
:104e3400f0b50b680c008f68cd68496887b0060030
:104e44000593002902db02218b43059305a95368ce
:104e5400126802910a21009701912000fff710fbcc
:104e6400236929185a1e059b121a009330003b002f
:104e7400fff784fb7368db0503d56368984200daa7
:064e8400180007b0f0bdac
:020000040000fa
:104e8c0010b5114b00229a61da61104b83321a76fd
:104e9c005a680f4c22405a601a00d369002bfcd17f
:104eac0000290cd0084a20330324d4544000084372
:104ebc00064b58621a00d369002bfcd110bd024a74
:104ecc0020230424d454f1e74c3a0020001400426f
:044edc00fffffbffda
:020000040000fa
:104ee0000202020202fe1212224203020000e01c31
:104ef00042203826e2202223ec102020004854f3e0
:104f0000524408eaaeebaeea080000000000000fd1
:104f10000000000000000007000008080402010073
:104f200008080700000000090a0f0605080b0a0f11
:044f30000a0b080060
:020000040000fa
:104f3400f0b50f0087b0039015001049072204a8ac
:104f44001c0000f073febb687e6802933f68002d6e
:104f540000d104ad002c03d1280000f0a1fe040010
:104f6400002e02dbb44200d934000097029b2200d9
:104f740029000398fff702fb07b0f0bda85d00000d
:020000040000fa
:104f840010b5064c2378002b07d1054b002b02d01b
:104f9400044800e000bf0123237010bd783a0020cc
:104fa4000000000000000000044b10b5002b03d0eb
:104fb4000349044800e000bf10bdc04600000000e3
:084fc4007c3a0020000000000f
:020000040000fa
:104fcc0010b50a4b98470a4b984700f0e3fe094b83
:104fdc00ff229343084a9360084b9847084b984725
:104fec00084b9847fdf740fffee7c046c73b000063
:104ffc00c73b00000000000000ed00e0814d000008
:08500c00c73b0000c73b000098
:020000040000fa
:105014000d4b01221a801a00d37b5bb2002bfbdb01
:10502400094bec22d2001a80084a1a833b229a7355
:10503400074a0021116001225a731a00d37b5bb224
:10504400002bfbdb7047c046002c00421bb7ffff60
:04505400e83a002016
:020000040000fa
:1050580070b5c30700d470bd0b4c25786db200f055
:1050680053fe6d00094be85223785bb20133d90f28
:105078005b18012213405b1a5bb223702378002b64
:10508800e9d1034b1a70e6e7030c0020003b00202f
:045098003e3b00207b
:020000040000fa
:10509c0041008c46012212068a420bd8090938239a
:1050ac001b06c918c30fdb07194340076346da42d6
:1050bc0004d27047c10fc9070020704703d13823b1
:1050cc001b06c918704738231b06c9180122d204c5
:0450dc0011437047c5
:020000040000fa
:1050e00030b401256d054c00e54215d85c00e54261
:1050f00012d80c001c436400044314430fd005d2a3
:1051000082428b418041013030bc704790429941ce
:105110008041013030bc7047002030bc7047012016
:0451200030bc7047e8
:020000040000fa
:10512400f0b501291cdd071f012606e032009200bc
:10513400155001360437b14212d0bd68002ef5dd9a
:105144007c68a5420ada3b0032009c60013a002ade
:10515400edd0043b5c68ac42f7dce8e73200e6e7fc
:02516400f0bd9c
:020000040000fa
:105168000d4b01221a801a00d37b5bb2002bfbdbac
:10517800094bcc22d2001a80bb221a83803a9a7338
:10518800064a0021116001225a731a00d37b5bb2d0
:10519800002bfbdb7047c04600300042e03a00209d
:020000040000fa
:1051a80010b50e4b06225a60fff726f9fef7daf81b
:1051b800fff752fd00f0b4fd00f04af900f088fb5b
:1051c800fff708fe00f0b8fafff798f9fff71eff9f
:1051d800fff7c6fffff784fa10bdc0460040004144
:020000040000fa
:1051e8000fb400b583b004ab04cb0193c8210b48be
:1051f800fff792fd431ec62b03d903b008bc04b0c9
:105208001847064b00221a5401001800fff7a2faab
:1052180000f098fd0028fbd1efe7c04604390020d4
:020000040000fa
:1052280030b583b015000c4b1a8853081c1c8b42f0
:1052380000d20c1ce11a89b21c1c834200d2041c47
:10524800e31a98b200951300fff736fd034b0122cd
:105258001a7003b030bdc0464e3b0020463b0020cc
:020000040000fa
:1052680029001401000214012900000000000000b8
:105278000000000000000000000000000000000026
:105288000000000000000000000000000000000016
:105298000000000000000000000000000000c04600
:020000040000fa
:1052a800030010b51a78202a0dd0110009390429f5
:1052b80009d900212b2a02d02d2a01d1013101332d
:1052c80000200a2404e00133ece760430133801a2c
:1052d8001a78303a092af8d9002900d1404210bd7d
:020000040000fa
:1052e800002b11d1002a0fd1002900d1002802d0ab
:1052f8000021c943081c07b4024802a140180290c3
:1053080003bdc046a90a000003b4684601b5029867
:10531800fef724f9019b9e4602b00cbc7047c046bc
:020000040000fa
:105328004200110e7f390fd40123db0749421f3198
:105338000cdd400003d2c0011843c8407047c001cb
:105348001843c8404042704700207047ff210906b3
:0e5358008a4200d99843184000d4d8437047c9
:020000040000fa
:1053660030b401256d054c00e54215d85c00e542d8
:1053760012d80c001c436400044314430cd005d21d
:1053860082428b418041404230bc704790429941f5
:0e5396008041404230bc7047002030bc704760
:020000040000fa
:1053a40030b401256d054c00e54215d85c00e5429a
:1053b40012d80c001c436400044314430cd005d2df
:1053c400904299418041404230bc704782428b41b7
:0e53d4008041404230bc7047002030bc704722
:020000040000fa
:1053e4001c2101231b04984201d3000c10391b0a11
:1053f400984201d3000a08391b09984201d30009d5
:10540400043902a2105c40187047c046040302022b
:0c54140001010101000000000000000088
:020000040000fa
:1054200070b50c4d20242d5d0024002d01d02000ee
:1054300070bd084ca080e360049b6361a1602261a1
:105440000023a37023702122a3540021fff71efd27
:085450000124ece74c3a0020b6
:020000040000fa
:105458000b4b01221a6019008b681a42fcd1084bc9
:1054680000221a600221d9635a64962292019a6432
:10547800044a1a641a009368002bfcd17047c0468e
:085488000028004280bb000077
:020000040000fa
:10549000f0b585b004000291160003930aab1d78a5
:1054a0000027300000f0fefbb8420ad9f25d0095fb
:1054b000039b02992000fef78dfd01370734a4b24b
:0654c000efe705b0f0bdae
:020000040000fa
:1054c80010b50b4c2023e45c0023002c01d01800fd
:1054d80010bd074b9880dc605c6199601a619c7014
:1054e8001c7021229c540021fff7ccfc0123eee71d
:0454f8004c3a00200a
:020000040000fa
:1054fc0082000a4bd2580023002a07d08300074aa7
:10550c009958074a9a580023914201d818007047bd
:10551c008000024b0022c2500123f7e7943a00208e
:04552c00b03a002071
:020000040000fa
:1055300070b5084c8025ad01656180235b01636116
:105540001921054800f0fcfba561044b044a1a60d0
:10555000012070bd004400413c5a0000083b00207f
:0455600004330020f0
:020000040000fa
:10556400f0b5050000200a4c4200165d002e02d161
:10557400a2185078f0bd296801300f78c0b2b74244
:1055840003d1a2180131507829600a28ecd9f1e737
:04559400745a000045
:020000040000fa
:10559800f4464a1805d200f0baf801d5c0174008f9
:1055a800604701235b05d34206d200f0b0f801d56d
:1055b8000120c0074042604701d10042f5d0d01712
:0455c80040087047e0
:020000040000fa
:1055cc0010b57f2811d83f290fd8cb08db01c018a4
:1055dc0080b2064b1b6818180723194001248c4015
:1055ec000378a3438a401343037010bd083b00208b
:020000040000fa
:1055fc0070b582b005000c001600069a00923200bd
:10560c00fef75cf9079b320021002800fef714fe20
:10561c002368089a934200dd1300236002b070bd2a
:020000040000fa
:10562c0010b584b00c0003a908700123009302abe1
:10563c0001225720fff7eefe00f0d4f80028fbd132
:0e564c00002c02d002ab1b78237004b010bdfe
:020000040000fa
:10565a0010b584b0040000210020fff7e2ff03a97f
:10566a0007230b70013b0093230001225720fff709
:0e567a00d2fe00f0b8f80028fbd104b010bd3d
:020000040000fa
:10568800012212064300da420fd84b00da420cd846
:1056980002000a43520008d003d2814280414042ae
:0e56a8007047884280414042704700207047a2
:020000040000fa
:1056b600012212064300da420fd84b00da420cd818
:1056c60002000a43520008d003d288428041404279
:0e56d60070478142804140427047002070477b
:020000040000fa
:1056e40070b4012676054c005d00e6420cd8ee420b
:1056f4000ad825430543154303d0994204d1904267
:0e57040002d1012070bc7047002070bc7047bd
:020000040000fa
:105712004a0010d2520d03231b02ff33d21a0ad4bd
:1057220052421f3209d4400dc90208430123db074c
:0e5732001843d040704700207047d0177047d2
:020000040000fa
:10574000084b802292025a601a00d369002bfcd1c8
:10575000044b17221a73044a1a601a00d369002beb
:0c576000fcd17047001800420e00010050
:020000040000fa
:10576c00094b5b8b5b070dd0074b80221a76793a7d
:10577c005a831b7e5b0705d5034b04211a8d1a7eb9
