:020000040000fa
:10000000f07f00202533000047230000af2a0000c6
:1000100000000000000000000000000000000000e0
:10002000000000000000000000000000e72c0000bd
:100030000000000000000000e72c0000d93900009b
:10004000e72c0000e72c0000e72c0000e72c000064
:10005000e72c0000e72c0000e72c0000e72c000054
:10006000e72c0000e72c0000e72c0000e72c000044
:10007000711e0000e72c000049230000e72c00005f
:10008000e72c0000e72c0000213a0000fd390000b9
:10009000e72c000000000000000000009139000083
:1000a000e72c0000e72c0000e72c0000e72c000004
:020000040000fa
:1000b000f8b5c046f8bc08bc9e4670470533000042
:1000c000f8b5c046f8bc08bc9e467047dd3200005b
:020000040000fa
:0800d0001426000001000000ed
:020000040000fa
:1000d800f0b59bb013930b6815900d934b68129174
:1000e80004938b680e930b691893cb680693136877
:1000f8000b9353680b98089300220023089903f088
:10010800bcfa00280dd10d9b5b073ad408200d9b43
:1001180003400c930e9b07930c9b002b0fd02023be
:1001280006e0802212069446089b634408932d2318
:10013800069a13700e9b013b079301230c93089baf
:100148000b995b005b08984a00291ed193421cd189
:10015800069c139ba4460c9a413b624493491000a9
:10016800192b10d803f0f4fd069803f073fd0d9bce
:100178000200009306990e9b159802f0effd1bb044
:10018800f0bd2b23d4e70431ece7934203d810d118
:100198000b9b002b0dd0069c139ba4460c9a413b4d
:1001a800624482491000192b01d80831dae70c3172
:1001b800d8e7002200230b98089903f039fb0026a2
:1001c8007b4f002833d000230393139803f06afd74
:1001d800c3b20f93049b002b00dae8e10f9b0a934c
:1001e800672b00d0f1e0049b002b00d1dae1039be0
:1001f800043304db039b049a934200dae0e06523ae
:10020800f9e026002f00039b013303930022694b7a
:100218003000390001f0eaff0b9a089b04000d003a
:1002280003f00cfa0028ecd00024012524e0039008
:10023800ece7039b1a00604b9a4212da002c10d1ab
:1002480000225e4b0b98089901f0d0ff00220b901a
:10025800089130003900594b01f0c8ff2c00060006
:100268000f00544b30003900002202f0a8fa0600b3
:100278000f00039b013b039332003b000b98089946
:1002880003f0fbf90028d4d19fe700230024109342
:100298001194fee0089609970a9b039d652b00d0f0
:1002a80019e1002517e1002f0ad1002d08da2e23c5
:1002b800069a149901365354079b0137013b07935b
:1002c800a21933009446302102e0069ad154013332
:1002d8009c45fad1079aa319141b069a30305e1c64
:1002e800d054631e0793002421e0129b14961b69c7
:1002f8000493053bb34200d8f7e0089a099b0b9892
:10030800109902f05cfa02f01bfb0490059103f0cf
:100318005dfa092800dd092010230d9a13400343d4
:10032800c1d10f9b672bbed1002dc9da01348020c3
:100338000006844610990b9a61440b0004980599ad
:1003480000920193089a099b03f09cfc80231b06ea
:10035800cb180b901093089809990022154b02f0be
:100368002efa013d08900991bbe00d9bdb0600d4f5
:10037800bee02e23069a93550136b9e0039839005a
:1003880002f0dcfb069b3031013c1955039839001b
:1003980002f08afb079b0390013b0793bfe0069a94
:1003a800125c1a540138ede00000f07f7c3c00003c
:1003b8000000f03f00002440d4feffff000050433f
:1003c800039b002b16da66230a93049b01330493dc
:1003d8000a9b662b10d1039b002b03da002300260f
:1003e800764f03930f9b672b04d0039a049b944684
:1003f8006344049366230a930023109611970b9d78
:10040800089c1493109a119b2800210002f0d7f938
:1004180002f096fa1690179103f0d8f980212a0075
:100428000906631819900092019316981799109a63
:10043800119b03f027fc80231b06cc180022604b7d
:1004480005001098119902f0baf9149b10901191b7
:1004580001331493149a049b9342d3d10022594b2d
:1004680001f0c4fe1090119102000b002800210039
:1004780003f003f9002800d007e7109a119b280021
:10048800210003f0d5f9002803d0199bdb0700d41d
:10049800fbe6109a119b0b98089901f021fb0022aa
:1004a8000b901091464b3000390001f09ffe0b9adb
:1004b800109b0890099102f0ffff002800d1e9e69f
:1004c800039b013303930a9b662b00d0e4e6049b4d
:1004d800039d0133049300242700049b0c9eeb1a10
:1004e8001693169b9d4200d0ffe6002f00d13ce7f3
:1004f8000025069b9b1904931d700a9b652b31d11f
:10050800189b5c1e069b1d55039bab4202da5b429f
:100518000393013503230a27189a9b1a0893039b10
:10052800002b00d02ae7089b1b19002b00dd25e7cc
:10053800621e2d23002d00d1023b0699023c8b54ec
:10054800139b413b192b01d845230a93069b191984
:100558000a9b0b70079b023b0793a64202da04989a
:1005680003f0f6fb03230d9a1340022b00d0fbe5a2
:10057800079b002b00dcf7e5069803f06bfb069b56
:10058800079a9b180c9a824200dc08e71300069a27
:100598003021944663441800079a03f053fb002364
:1005a8000e93e1e50123049321e60623fbe70f9b65
:1005b800672bfad00a930623049306e70000f03f5e
:0805c800000024400000144073
:020000040000fa
:1005d000f0b5d6464f464646c0b584b0002002f07e
:1005e000b1ff0021ea4803f0a5fb03f099fa0021ce
:1005f000e84803f099fb03f087fa0021e64803f08e
:100600008dfb0021e54803f083fb0121e44802f063
:10061000adfe0021e34803f05dfb03f05dfa03f05b
:1006200031fa03f0ddfae04b802292015a61520860
:100630005a611921dd4803f05ffbdd4c8022d200b6
:100640000021200003f002fb0094402380220021bf
:10065000002002f03dfdd74b7f221a700023d64abe
:100660001370d64a1360d44ed24dd54c31782878c9
:10067000c01ac0b200944023802202f029fdcf4f5f
:1006800038684043c821490002f066fa02f03aff98
:100690003b6802333b607f2be8d9fa24a40020009a
:1006a00002f030ffc24d8022d2000021280003f06a
:1006b000cdfa0095402380220021002002f008fda1
:1006c00003f050fb050003f04dfbbe4902f080fa39
:1006d0000800210002f040fa0600ba49280002f0a2
:1006e0003bfa0200b84db94c33002900200003f05a
:1006f0006bfa22000021002003f022f903f0b2f986
:10070000060003f037fb01007001801b8000801998
:10071000c00002f021fa020029001831200003f085
:1007200053fa22000121002003f00af903f08af9ac
:10073000060003f01bfb010073019b1b9b009b1930
:10074000d80002f009fa020029002c31200003f041
:100750003bfa22000221002003f0f2f82b00403384
:10076000220043cb43c21b681360220007210020f4
:1007700003f0e6f8964c1d23237063336370022266
:1007800021000e2002f0f2ff2800503002f0fafea5
:100790000f2323700e3b00938e4b012221000e206d
:1007a00002f0acff03f0b8f80028fbd1894b1978b0
:1007b0008548743002f0e6fe85491b230b70d53363
:1007c0004b7002220e2002f0d1ff834c200010302b
:1007d00002f0d8fe0021814803f088fa2000303072
:1007e00002f0d0fe2000383002f0ccfe7a4b994661
:1007f00040234b449a4624330393002437e1784b3b
:100800001c70694b80225203da61704a1300514612
:10081000a1c9a1c3097819700321200003f090f841
:100820004846503002f0aefe03f062f95be003f0a0
:1008300083f96c4b1b6b9b0374d46843642102f0f7
:100840008bf9684b58676de0674b1c70544f3a78d2
:1008500061495e4d7831280003f0b6f92a0007217e
:10086000200003f06df8397860480c3002f08afe01
:100870000121380002f07afd73e003f05df9594b75
:100880001b6b9b0305d46843594902f065f9554b2e
:100890005867584d2a88554f390028314b4803f086
:1008a00093f94a4a0521200003f04af86a88390082
:1008b0003431464803f088f9444a0621200003f009
:1008c0003ff829883800403002f05cfe6988380023
:1008d000583002f057fe484b1b78002b00d097e0b1
:1008e0003378002b8bd1454b1b78002b34d0434bf6
:1008f0001c70434b1b78434a15785d19edb2157097
:100900006a1e622a02d95b423d4a1370632d8ed95a
:1009100003f012f9334b1b6b9b0303d4013080b2fd
:10092000304b5867374b1a78284d0399280003f04d
:100930004bf92a000421200003f002f81a4b802210
:100940009203da61224916230b70153b0093214b69
:1009500001220e2002f0d2fe234b1b78002b00d088
:1009600072e7294b1b78002bb5d0274b1c70214b0d
:100970001d88264b9d4200d87fe703f0ddf8194b18
:100980001b6b9b0385d4013080b2164b586780e700
:100990002d3c00003d3c00004d3d0000413d00006d
:1009a000340600203934000000440041a03a000021
:1009b000000000203b060020350600202406002011
:1009c000140f000040420f0020200000c804002047
:1009d000380600203c060020a0200000513b00000b
:1009e00036060020002800423d060020202100009d
:1009f000ff0f0000200600203a06002037060020e6
:100a00003e0600209f0600201f060020fe0f00006b
:100a1000184b1c602100184b9846184e0125434680
:100a20005b18711800952a000e2002f067fe02f094
:100a300073ff0028fbd10f4b1a68511c1960052960
:100a4000edd90d4842791202037913431bb2c178e4
:100a5000090282780a4312b245782d0201782943af
:100a600009b20748783002f08dfd064b1c70064e27
:100a700036e7c0462406002018060020a006002005
:0c0a8000202100003a060020360600206d
:020000040000fa
:100a8c00f0b599b014930b68566809934b681390a2
:100a9c000d938b68cf680c930b693100119313681d
:100aac00002207930798002302f0e5fd00280cd1e3
:100abc00099b5b0732d40820099b0c9d03400593ce
:100acc000cd02023013d3b7006e080231b06f6185a
:100adc002d233b700c9b5d1e01230593079a73001d
:100aec005b08002a1cd1b24a934219d1149bb14c19
:100afc00059a413bb8182100192b00d9211d03f090
:100b0c0025f9201d03f0a4f8099b0200009339007d
:100b1c000c9b139802f020f919b0f0bd2b23d8e7e9
:100b2c00a34a934203d812d1079b002b0fd0149bde
:100b3c00a04c059a413bb8182100192b05d8083157
:100b4c0003f004f920000c30dce70c31f8e7059bce
:100b5c0005995a1c30237b54149b413b0e930e99e0
:100b6c005823192900d920330599bb540231ab1ee7
:100b7c0005910893002200230798310002f056fedd
:100b8c00002800d164e100238b4c0693029303945c
:100b9c000d9b1093002b01da18231093029b039cde
:100bac000a930b9434000023079d129328000a9a91
:100bbc000b9b210001f001fe01f0c0fe0a9a0b9b79
:100bcc001690179101f010fb02000b002800210079
:100bdc0003f05ef8794b05000c000a980b99002283
:100bec0001f002fb129b0a900b9101330f930d9baa
:100bfc00002b07da002200232800210002f016fe49
:100c0c00002806d1109b129a934200dd26e1013395
:100c1c000f9300220a980b99694b01f0e5fa0a90a0
:100c2c000b9102000b002800210002f024fd00288b
:100c3c0000d015e10a9a0b9b2800210002f0f6fd6a
:100c4c00002806d01698179902f0befdc30700d4f1
:100c5c0006e10a9a0b9b0798310000f03fff1291b6
:100c6c0049000a904908002803d1514b994200d100
:100c7c003ce70025059c10950795119b2600053b2c
:100c8c00a34230d9029a039b0a98129901f095fd60
:100c9c0001f054fe1490159102f096fd031e00d045
:100cac00e3e0079a002a00d1dfe00135029a039baa
:100cbc001498159901f098fa02000b000a981299f1
:100ccc0002f0e6ff00220a9012913c4b0298039925
:100cdc0001f08afa079b0290039101330793079a5c
:100cec000f9b9342c9d1109b002b1ad1002d00d120
:100cfc00fce00d9b002b00dcf8e0099bdb0700d52a
:100d0c00f4e02e2230213b191a702a19ba185970a6
:100d1c0001339a42fbd12c19ed43089b0134eb189b
:100d2c00089300263b191e700293119b5d1e069bb7
:100d3c007e55b34202da5b42069301360223119ac6
:100d4c009b1a0793069b002b00d0bbe0079b5b19fb
:100d5c00012b00d1b6e06a1e2d23002e00d1023be0
:100d6c00bb540e9a023d5023192a00d9203379190d
:100d7c000b70ac4202da029802f0e8ff0323099ae6
:100d8c001340022b12d1089d023d002d0edd3800c0
:100d9c0002f05eff7b19059a904200dba2e0b818c6
:100dac0030212a0002f04cff00230c933800a9e6f6
:100dbc000000f07f6c3c00000000f03f0000b03ff2
:100dcc0000002040069b0294039501330693029a7f
:100ddc00039b1000190000f081fe04000d000200be
:100dec000b000798310002f046fc0028ead0029a6a
:100dfc00039b0798310002f03efc002800d1c7e6a7
:100e0c000298039900223d4b01f0eef900220023d9
:100e1c0002f00cfd00280fd0029803990022384be9
:100e2c0001f0e2f9002202900391354b0798310052
:100e3c0001f0daf90e000790304b0298039900226a
:100e4c0001f0d2f9069b02900391013b0693cee789
:100e5c0000232c4c069002930394b8e70f9ba4e656
:100e6c00002300240a930b94f3e6109a002a0ad16b
:100e7c00079a002a07d02e22ba55089a0134013a53
:100e8c000892012210922e1902e030223a550134b8
:100e9c00b442fad11800089a5730551b092b01dcc3
:100eac00303318000e9b192b06d820230343613bcb
:100ebc00192b01d802f0fbfe6b1e741cb85508935d
:100ecc000025f3e606980a2101f036fe013d30318b
:100edc00795506980a2101f0e5fd089b0690013b27
:100eec0008932fe73a5c1a54013854e7099bdb0648
:100efc0000d416e72e233b55013412e70000e03fe7
:080f0c00000050430000f03f1b
:020000040000fa
:100f140000000000000000000000000000000000cd
:100f240000000000000000000000000000000000bd
:100f340000000000000000000000000000000000ad
:100f44000080c0c0e0f0f0f0f8f8f8fcfcfcfcfc19
:100f5400fcfcfcfcfcf8f8f8f0e08000000008144d
:100f64000800000000000000000000000000000075
:100f7400000000000000000000000000000000006d
:100f8400000000000000000000000000000000005d
:100f9400000000000000000000000000000000004d
:100fa400000000000000000000000000000000003d
:100fb400000000000000000000000000c0f0f8fe87
:100fc400ffffff7f3f1f07030101030f1f7fffff89
:100fd400ffff7f1f0f03030103070f3ffcf8e080af
:100fe40000000000000000000000000000000000fd
:100ff40000000000000000000000000000000000ed
:1010040000000000000000000000000000000000dc
:1010140000000000000000000000000000000000cc
:1010240000000000000000000000000000000000bc
:101034000000000000000000000000feffff3f1f52
:101044000f070f1f7cf0e080000000000000000389
:10105400071f7ef8e0c00000000000000001070f39
:101064003ffcf8e0c00000000000000000000000a9
:10107400000000000000000000000000000000006c
:10108400000000000000000000000000000000005c
:10109400000000000000000000000000000000004c
:1010a400000000000000000000000000000000003c
:1010b4000000000000000000000000030100000028
:1010c40000000080c0e0fffffffcf8e080000000ab
:1010d40000000000c3e7fffef8f0c00000000000bd
:1010e40000000107070000000000000000000000ed
:1010f40000000000000000000000000000000000ec
:1011040000000000000000000000000000000000db
:1011140000000000000000000000000000000000cb
:1011240000000000000000000000000000000000bb
:1011340000000000000000000000000000000000ab
:10114400000c1e3f7f7ffffffffffffffffffcf848
:10115400f8fcfeffffffffffffff7f7f3e1800004c
:10116400000000000000000000000000000000007b
:10117400000000000000000000000000000000006b
:10118400000000000000000000000000000000005b
:1011940000000000000000c0f0f8f0f08000000043
:1011a40000000080f0f0f8f0c00000000000000033
:1011b400000000000000000000000000000000002b
:1011c400000000000000000001010101010303030d
:1011d40003030301010101000000000000000000fe
:1011e40000000000000000000000000000000000fb
:1011f40000000000000000000000000000000000eb
:1012040000000000000000000000000000000000da
:1012140000000000000080ffffff071ffffef0c07a
:10122400c0f0feff3f07ffffff800000ffffff004d
:1012340000fcfeff0f07070707070707060000ff6c
:10124400ffff878787878787cffffe780000feff31
:10125400ff0f070707070ffffffe0000fcfeff0f4d
:1012640007070707070707060000ffffffe0e0e0a6
:10127400e0e0e0ffffff0000ffffffff0000ffffd3
:10128400ff07070707078ffffefc000000000000b0
:101294000000000000003f3f3f0f000000071f1f39
:1012a4001f1f07000000073f3f3f00003f3f3f0074
:1012b400000f1f3f3c383838383838381800003fa2
:1012c4003f3f030303030303073f3e3c00001f3f6c
:1012d4003f3c383838383c3f3f1f00000f1f3f3c2d
:1012e400383838383838381800003f3f3f0101019a
:1012f4000101013f3f3f00003f3f3f3f00003f3fb0
:101304003f07070707070707030100000000000065
:020000040000fa
:101314000023f0b506001500afb0059101930599bf
:101324000b78002b00d10fe101235b420a930eab33
:1013340000240c93802309940b940d930b5d002bd4
:1013440001d0252b2ad1002c06d02200300002f037
:1013540009fb059b1b190593059b1a78252a00d0c8
:10136400e7e0013302930593022310219c460827ea
:10137400059803782b2b1bd025d8202b1bd0232b8f
:101384001dd02a2b2ad002f01bf90b90059b1a784a
:10139400303a092a33d801330593f7e70134cde70e
:1013a4000122099b80180393134309930590dfe7f7
:1013b4000423099a0ee0099b03933b430be0099b2a
:1013c40003930b4307e02d2bead0302bd9d162468f
:1013d400099b0393134309930130e7e72b6801301a
:1013e4001a1d1b6805902a600b93002b07da099ad3
:1013f4005b420392012203990b934a400992099b91
:10140400da0702d5022293430993059b1a782e2a00
:101414000ed10022581c0a9205905a782a2a28d103
:10142400023305932b681a1d1b682a6003930a93e1
:1014340005a802f0b3f9059b0700187802f034fc04
:10144400692800d183e035dc632800d1d6e01bdcb9
:10145400252800d1dfe0612859d0252306aa13707e
:10146400029b0593002309930b93013b0a930233d8
:10147400b2e002f0a5f80a90059b1a78303a092ade
:10148400d6d801330593f7e7642860d06728e4dcf5
:101494002a00390006a802f027fa002800d1a9e0a2
:1014a400059b09a95a1c05921b7806aa3000fef771
:1014b40011fe3de0702800d17de016dc6e2800d1dd
:1014c40091e06f28c9d12b000022390006a801f051
:1014d400daf9002800d18de0059b06aa013309a999
:1014e4003000059301f026fd22e0752840d07828cd
:1014f4004fd07328b1d1802f00d07be0059b2a68a0
:1015040001330593131d2b601268002364e02a0045
:10151400390006a802f0e8f9002800d16ae0059b2a
:1015240009a95a1c05921b7806aa3000fff7acfae9
:101534002418019b1c19a34200dc74e04f223b4b8e
:101544001a6001235b42019301982fb0f0bd2b0078
:101554000122390006a801f096f900284ad0059b1b
:1015640006aa013309a93000059301f045fadfe723
:101574002b000022390006a801f085f9002839d093
:10158400059b06aa013309a93000059301f026fe44
:10159400cee72b000022390006a801f074f90028d8
:1015a40028d0059b5a1c05921b7806aa09a930006d
:1015b40000f07effbce72b000022f02106a801f01a
:1015c40062f9002816d0059b079a01330593069b00
:1015d400134306d1164a163209a9300001f054fe0d
:1015e400a6e77823e1e7019b39001a1906a82b0026
:1015f40001f0d7fc059b013305939ae7802ff9d1bd
:10160400059b013305932b681a1d1b682a6006aae3
:1016140013700123e0e7802fecd1059b06aa013368
:1016240005931070f5e7019479e6c0463006002072
:04163400bc3a0000bc
:020000040000fa
:101638003e514949453e004442417f404000426195
:10164800515149460022414949493600302824224f
:101658007f2000274545454539003c4a49494932dc
:101668000001611109050300364949494936002638
:10167800494949493e00781611111678007f4949b1
:10168800494936001c2241414122007f4141412203
:101698001c007f4949494941007f0909090901009e
:1016a8003e414149493a007f080808087f00414106
:1016b800417f4141004141413f0101007f0814221f
:1016c8004141007f4040404040007f02040c027fbf
:1016d800007f020c10207f003e414141413e007fc7
:1016e8000909090906003e41516141be007f090907
:1016f80019294600264949494932000101017f015b
:1017080001003f404040403f00031c602018070094
:101718007f201018207f0063140808146300030456
:10172800780804030041615149454300205454544a
:101738003840007f48484830000038444444280076
:1017480000384444247f00003854545448000008aa
:10175800087e090a00001824a4a4f800007f0804e1
:101768000478000000447d400000002040443d0013
:1017780000007f10282440000000007f00000000c7
:101788007c047c047800007c04040478000038445d
:101798004444380000fc242424180000182424247d
:1017a800fc00007c08040404000048545424000091
:1017b8000004043f444400003c4040207c00001cde
:1017c8002040201c00007c2018207c0000442810a9
:1017d800284400009ca040201c00004464544c4451
:1017e80000001008081010080000005f000000004a
:1017f8001c2259655d522c10741f741f1400242a72
:101808007f2a1200004225122c52210004020102f4
:101818000400002056495620500000001c224100b8
:1018280000000041221c000000007f414100000030
:101838000041417f0000000836414100000000419e
:101848004136080040404040404040000106083012
:1018580040000000007f00000000407b3b000000cb
:101868000000363600000000402c1c00000000007c
:101878001818000000000103020000000000070023
:101888000000000007000700000000081422000004
:1018980000002214080000000008083e08080000a4
:1018a8000808080800000014083e08140040300822
:1018b8000601000000141414141400000251090653
:1018c8000000000000000000000002050200000007
:020000040000fa
:1018d800d80500201c0000000000000000060020c1
:1018e8000800000000000000ac0500202c000000eb
:1018f800000000007c05002030000000000000000f
:10190800f40500200c00000000000000080600207c
:101918000800000000000000100600200800000079
:10192800000000001e06002001000000000000006a
:101938001f06002001000000000000002006002013
:101948000400000000000000180600200600000047
:10195800000000003a06002001000000000000001e
:101968003c060020010000000000000038060020ae
:101978000200000000000000000000200004000039
:10198800000000003b0600200100000000000000ed
:101998003506002001000000000000003606002087
:1019a80001000000000000003706002001000000d0
:1019b800000000003d0600200100000000000000bb
:1019c800340600200100000000000000c8040020c8
:1019d800640000000000000000040020c8000000af
:1019e80000000000240600200400000000000000a1
:1019f800400600205f000000010000003031323353
:101a08003435363738394142434445464748494ad0
:101a18004b4c4d4e4f505152535455565758595a96
:101a28006162636465666768696a6b6c6d6e6f7026
:101a38007172737475767778797a7e2140232425bc
:101a48005e2628295b5d7b7d5f5c7c3b3a2c2e60a3
:101a580027223c3e2b2d2a2f3d3f2000a0060020a8
:101a68000600000001000000060708090a0b000034
:101a78009f06002001000000010000003200000065
:101a88003e060020010000000100000002000000e6
:101a98003f060020010000000100000001000000d6
:101aa8002806002004000000000000002c0500208b
:101ab80050000000000000002c0600200400000078
:101ac80000000000300600200400000000000000b4
:101ad80000000000000000004444444444444444de
:020000040000fa
:101ae800f0b40125ed070f005f405ad48b4200d1b6
:101af800824205d950404240504059404b405940dd
:101b08004e18760ddf187f0d3bd0741c640529d064
:101b1800f41b352c26d80e0ddb022b43db0ac90239
:101b28002943c9121700202c1ed2e741e240574032
:101b3800e3415a40a340e3405a40002480185941e9
:101b48000ad3b21c520521d0c207012f62411700e7
:101b58004008cb0718434908013636054208af410b
:101b680060417141f0bc7047203c06d01f00e7413e
:101b7800e3405f400024012a6741c0186141ebd36c
:101b8800dfe7002eeed129400020ebe701363105d2
:101b98000020e7e7e742e5d10020c143090dc90469
:101ba800e0e76b400e00871a9e4104d26e40c01bce
:101bb800b141d21973414e18df18ac0ae642e9d296
:101bc800760d7f0d31d0f41b362ccbd8b4460e0dd4
:101bd800db022b43db0ac9022943c90a012c32d88c
:101be80004d1d4075208df073a435b08ef0a64427e
:101bf800904199411ed0002239424dd124194041cb
:101c080049410124394204d101340018494139427b
:101c1800fad06246a24204d9361b013e360589191c
:101c2800a0e7f10ac90700209ce736429ad10020b4
:101c3800002197e70200224394d0b842ded2010087
:101c480020002024e3d1202c13dd203ce2411700a2
:101c5800a240e2405740e3415a40a340e3405a4083
:101c6800012fbf410137174300227c42984191411f
:101c78000ce01700e741e2405740e3415a40a340d7
:101c8800e3405a407c429041994100220f0303d21d
:101c9800013e241940414941013e36054708ac41ff
:081ca80050417141f0bc70478e
:020000040000fa
:101cb000f0b5de4657464e464546e0b583b0804611
:101cc0009246002939d0002837d0674a5268072049
:101cd0001040019045d15246002a00d1a5e062484b
:101ce000007e420705d560480425826a027e2a42aa
:101cf000fbd15d48448b04252c434483047e80251e
:101d00002c430476002291468b4201d95a1a9146ff
:101d1000019a002a04d05b0849084a4652089146b5
:101d2000514d01242a7e2242fcd0002000274e4c37
:101d30000426012500908b462fe00020002b69d05f
:101d40005246002a6dd0484a526807301040019030
:101d500000d17de0002900d080e0da0705d5002021
:101d600058e0ca075fd4002bf7d14046441ea0417b
:101d700040420140afe77a004046125ad205d20de8
:101d8000a262013712e0394aa26238e0009859464f
:101d9000227e2a42fcd000908b465f4527d0019ad4
:101da000002ae8d14246d25da2620137002bedd075
:101db00000985946227e3242fcd000908b46a26a9f
:101dc00001009842e9d20198002804d150464254bb
:101dd00001310091e1e7009948008446d205d20d17
:101de000504661460a52009901310091d5e74a46b2
:101df000002a09d0019a002ac5d1ff32a26201222d
:101e000052429446e144d1e7174902320b7e134215
:101e1000fcd0012003b03cbc90469946a246ab469c
:101e2000f0bd0020f6e70020f4e70f4b187e0023fa
:101e3000420700d557e70c4b588b042420435883a6
:101e4000187e8024204318760023002291465fe705
:101e50004246002a00d03ee7019940e7ca0700d475
:101e60007be70020d6e7c04600180042ff010000d3
:020000040000fa
:101e700010b5694b9b7d002b17d0674b5b8b9b0785
:101e800014d5664b2022ff2199540132fd39995413
:101e9000624a2023d35c5bb2013300d18be05f4afe
:101ea0002023d35c062b00d19de010bd5a4b5b8be9
:101eb000db0707d5594b2022ff2199540132fd3908
:101ec0009954e5e7544b5b8b5b0707d5534b2022b6
:101ed000ff2199540132fe399954d9e74f4a202302
:101ee000d35c5bb2032b44d0042b0fd0022bcfd199
:101ef0001369002b04d09088002101f09df9c7e7f9
:101f0000464b9888012101f097f9c1e7434a93694c
:101f1000126993420cd0414a9168cc5c3e4828211a
:101f20004454013393610200d369002bfcd1afe725
:101f30003a4b5b69002b0ed0384b9b885b0001222b
:101f40001343354a5362d369002bfcd1334a203303
:101f50000321d1549ce7304a5168c0239b020b43b4
:101f60005360d369002bfcd12c4a20330621d15475
:101f70008ee72a4a5369013bd2699a420dd0264a1c
:101f8000d369002bfcd1254ad36923482821415c21
:101f9000d068c1540133d3617ae71f4a5168e02306
:101fa000db020b435360d369002bfcd11b4a203367
:101fb0000621d154e3e720230021d154164a516869
:101fc000c0239b020b435360d369002bfcd1124bff
:101fd00083221a76114b5b6a002b00d165e70f4a0a
:101fe000906a984761e71300002220215a5401317a
:101ff0005a54094b83321a761900533a4b8b1340cb
:10200000102bfbd1054b5b6a002b00d14de7034a37
:10201000906a984749e7c04600140042ac0500208a
:020000040000fa
:10202000537973436c6f636b20256c642e252d6c84
:10203000644d487a00000000544333207065726993
:102040006f6420256c646d730000000054433420dd
:10205000706572696f6420256c646d730000000008
:1020600052656365697665642044617461203a0055
:10207000472d53656e736f7220536f66747761726c
:102080006520526573657420436f6d706c6574656f
:10209000640d0a00472d53656e736f722057484fc9
:1020a00020414d2049203a20307825580d0a000063
:1020b000472d53656e736f7220496e697469616c48
:1020c00020436f6d706c657465640d0a000000003c
:1020d0001b5b324a000000001b5b3f32356c000086
:1020e00048656c6c6f20576f726c642100000000b3
:1020f0001b5b313b314848656c6c6f20576f726ccd
:102100006421210050574d2044757479203a2025d0
:1021100033642525000000005265636569766564b7
:102120002044617461203a20253163001b5b353bfc
:102130003148526563656976656420446174612045
:102140003a2025316300000056523120203a2025e4
:102150003464000054656d70203a2025346400001a
:102160001b5b323b31485652312056616c756520fd
:102170003a202534640000001b5b333b3148546532
:102180006d70657261747572652056616c7565203d
:102190003a202534640000001b5b343b3148472d56
:1021a00053656e736f72203d20282535642c2025e1
:0c21b00035642c20253564290d0a000040
:020000040000fa
:1021bc0008d1002806d1f54204d801d3002a01d158
:1021cc006d0d09d10020c143090dc904f0bdf9d131
:1021dc001242f7d1640df5d00020c14349054908de
:1021ec00a6e000206146f0bdf0b50127ff070e0008
:1021fc005e403e40b446be0a4c18dd18f442d7d2bd
:10220c00f542e4d2640decd06d0dead06419c9022c
:10221c003943460dc0023143db023b43db0a10b4a9
:10222c008e4685b297b26f43140c6c433e0ca419c6
:10223c00260c2404bfb227439cb26c43a419190c7e
:10224c006943250ca4b249190d04090c6419000c3e
:10225c0095b245433e0c76193743bfb2360c150c7c
:10226c004543ad19a6b2240cad192e0437432e0ce0
:10227c0036199db24543ad19acb22e0c89191d0c03
:10228c0045436d182e04290c3443704680b295b228
:10229c0045433e0c76193743bfb2360c150c4543fb
:1022ac00ad19a6b2ad19240c2e0437432e0c3619d9
:1022bc009db24543ad19acb22e0c89191d0c45438a
:1022cc006d182e043443290c75462d0c90b26843be
:1022dc003e0c80190604bfb23e43070ca0b23f1857
:1022ec00120c6a43d019020c80b2240ca4189ab2b6
:1022fc006a43121914042043120c89181b0c6b43eb
:10230c00c91810bc01273d05294203d1b61940411b
:10231c004941013cff077d0d013d641b0bdb6d004a
:10232c00ac4209da240500254208be4168416141ee
:0a233c0066463143f0bd54e74ee75a
:020000040000fa
:02234600fee7b0
:020000040000fa
:10234800f0b5c64600b5574b9b7d002b17d0554ab4
:10235800137edbb2927d52b2002a13db514a137e00
:10236800dbb2927dd20702d5db0700d582e04d4a69
:10237800137edbb2927d520701d55b074bd404bcb8
:102388009046f0bd5bb2002be8da464b5b8b072228
:102398001340e3d0444ce38501f08efa414b84228c
:1023a8001a752c230022e254636a002bd6d03e4ac9
:1023b800906a9847d2e7bb68f35c0b859368013352
:1023c8009360936898460b7e23420bd0404509d909
:1023d8004b682b40012beed163469b685b009b5bef
:1023e8000b85ebe7304b9a685b689a42bfd32e4b5c
:1023f80000221a755a602b4a01211175db68002bdf
:10240800b5d0294a10699847b1e727490a6a896906
:102418005200535215e0244a2c23d35c002baed033
:10242800214b1a6adb699a42a9d21e4a138d9bb2c4
:10243800516807220a40012ae7d01b4a116a9269ab
:102448005354194b1a6a01321a621a6adb699a42a2
:1024580000d094e7144b00222c215a54da61114a17
:10246800583111755b6a002b00d188e70e4a906ad3
:10247800984784e70c4b1b7d002b00d177e70a4b6c
:102488009a685868074b1b7edb07abd58242a9d2f6
:10249800054b1e68034907259c461f001a000124a6
:0c24a80096e7c046001c00427c050020a6
:020000040000fa
:1024b400f0b58fb00d934b680c9006938b680d00ac
:1024c4000793cb6816000393069b0f68002b44db2d
:1024d40002239f4310233b400a93079b04930a9bc8
:1024e400002b07d0726833681343079a02d0130095
:1024f400023b049308233b400b935a1e9341049ad6
:10250400d31a04933368039a0893736809932b6965
:102514005c1e00231355069b0593012c20dc0a9bab
:10252400002b52d10b9b002b03d02023039a013c98
:1025340013552b6900975a1e039b121b19190c98eb
:10254400079b00f00dfc0c9b5b68db0503d56b68f7
:10255400984200da18000fb0f0bd01230693b9e7e2
:10256400089b099a13430cd1059b002b09dc069a9e
:10257400049b9b1a059a9b18002bd0dd02231f4253
:10258400cdd00f22089b013c134018005730092b73
:1025940001dc303318000d9b413b192b06d8202356
:1025a4000343613b192b01d801f085fb039b1855ac
:1025b400059b013b0593099b1a07089b1b091a43ba
:1025c400099b08921b090993a7e70cce1343a9d0d2
:1025d400039b0d9a1b19013b1a703023039a023c8a
:0425e40013559fe705
:020000040000fa
:1025e8002f4b0e229a821a000223d1680b42fcd08c
:1025f8002b4b00229a612b4b2b4a5a602b4a9a602c
:102608001a0053785bb2002bfbdb254a938c8021a0
:102618008b4393841023d1680b42fcd0244b1b6856
:102628009b0e3f2b3ad09b028022920013431c4af8
:1026380093621c4b8222d2015a80194a1023d16816
:102648000b42fcd0164b1b4ada621a001023d168e1
:102658000b42fcd0124b06229a841a004023d16800
:102668000b42fcd00f4b144a5a601a0053785bb2e5
:10267800002bfbdb0b4b114a5a80114a5a80114a36
:102688005a80114a5a80114a5a80114a5a80114b6d
:10269800114a1a62024b00221a627047203bc2e7b5
:1026a80000080040000c004001050900012000005e
:1026b800246080001bb701040007090017400000d0
:1026c80018400000194000001b4000001c4000009a
:0c26d8001e40000000040040e01c010057
:020000040000fa
:1026e400f0b5060085b00f0015001c008b4265d8bc
:1026f40001d1824262d82100280001f057fa390042
:102704000090300001f052fa009b21001b1a1a00bd
:102714002800039301f03efa00900191019bbb4213
:1027240046d802d1009bb34242d8009b019c039a35
:1027340001200021f61aa74101f02cfa039b002b7b
:102744002fd0019b009adb0754081c43019b5d08b2
:10275400039b9c46bd422ed801d1b4422bd83200f3
:102764003b00121bab41012692185b410027b618af
:102774005f4101235b429c446346002bead18019ec
:102784007941039a04000d003000390001f0f6f994
:10279400039a06000f0001f0fdf9241a8d41200070
:1027a40029000a9b002b01d01e605f6005b0f0bdbc
:1027b40000200021c2e7b6197f41dae7002000219a
:0227c400efe73d
:020000040000fa
:1027c600f0b40125ed070c005c402c40a446ae0a8f
:1027d6004c18df18f4423dd2f74245d2640d4cd076
:1027e6007f0d3cd0e41bc9022943cf0adb022b43f1
:1027f600db0a0600b61a9f4104d2013cb6197f4196
:10280600b6185f416812800d241838dd001884421e
:1028160025d8e80c0021b6197f41b61a9f4103d38b
:1028260040414941f7d304e0b6185f4100184941d9
:10283600f1d32405b6197f41b61a9f4105d3374314
:10284600c20717430022012f5041614162461143de
:10285600f0bc70470cd100280ad1f74208d20020fc
:10286600c143490d0905f1e7002a01d1f74206d017
:102876000020c143090dc904eae77f0df8d0002006
:042886006146e5e7db
:020000040000fa
:10288a0010b588293cd015dc81294dd003dc80297c
:10289a004ad0002010bd822911d08429f9d11968a3
:1028aa00002a26d00a1d1a6000228b5e0360db17fd
:1028ba00436011e0a02930d010dc9029e9d11968d1
:1028ca000724002a2ed00919a1430a0008321a60e7
:1028da000b684c68036044600120dbe7c02901d023
:1028ea00f029d6d11a68111d1960136803600023f4
:1028fa00dee70c1d1c600b689bb203604260ebe7cd
:10290a001968002a04d00a1d1a600023cb56cde7a5
:10291a000c1d1c600b68dbb2efe71a68111d196009
:10292a001368c3e70731cfe71968002a03d00a1de5
:0e293a001a600b68bae70c1d1c600b68dde725
:020000040000fa
:102948004b005b0d264af0b55c1e944238d8254ae8
:102958009e1825d4332e22dc234a9b1827d4234ad9
:10296800da400700214b9743f3403c000f00024038
:102978009f4319403d000a430fd0002f0dda202352
:102988005b42f11824d480204003c8400200802113
:102998004903f1400b00a4185d4120002900f0bd57
:1029a8000020002901db0021f9e71149f7e720227f
:1029b8000e4b921b934001225242f2401a43d0e739
:1029c800002becd10022c90fcb0710001900e6e755
:1029d80020218020891b400388400200d7e7c04699
:1029e800fd07000001fcffffe1fbffffffff0f00f9
:0429f8000000f0bf2c
:020000040000fa
:1029fc00f0b54b6889b005930b6807009c460793ac
:102a0c00cb680c008e68049310685168cd0f44d0cd
:102a1c000b000200002150429941059b002b08db62
:102a2c000222634693430793002d02d1079b5a075a
:102a3c002ad5731e07aa02920a22009301920b0058
:102a4c000200200000f00af9002d02d1079b5a0762
:102a5c001ed501382d23002d00d1023b049a1354ae
:102a6c0023695a1e049b121a1918079b38000093ed
:102a7c00330000f071f97b68db0503d5636898427d
:102a8c0000da180009b0f0bd1b07db0ff31ad1e711
:102a9c001b07e5d501382023e0e7059b002bbfdaa7
:022aac00c4e77d
:020000040000fa
:022aae00fee741
:020000040000fa
:102ab000002941d010b4041c4c40a446012300223c
:102ac000002900d54942002800d5404288422cd335
:102ad00001242407a14204d2814202d209011b0130
:102ae000f8e7e400a14204d2814202d249005b002f
:102af000f8e7884201d3401a1a434c08a04202d397
:102b0000001b5c0822438c08a04202d3001b9c08d7
:102b10002243cc08a04202d3001bdc082243002839
:102b200003d01b0901d00909e3e7101c6446002cff
:102b300000d5404210bc704701b5002001f026f9d5
:102b400002bdc0460029f7d003b5fff7b3ff0ebca6
:102b50004243891a1847c046002934d00123002275
:102b600010b488422cd301242407a14204d281420c
:102b700002d209011b01f8e7e400a14204d281421c
:102b800002d249005b00f8e7884201d3401a1a4399
:102b90004c08a04202d3001b5c0822438c08a042d0
:102ba00002d3001b9c082243cc08a04202d3001b86
:102bb000dc082243002803d01b0901d00909e3e700
:102bc000101c10bc704701b5002001f0dff802bdf9
:102bd0000029f8d003b5fff7c1ff0ebc4243891aa4
:042be0001847c0468c
:020000040000fa
:102be40010b51e4b1e4a1a60c02292011a610021c0
:102bf4004c229954013299544a3a4e201a540130c5
:102c04001a54023a02301a54033019540130195438
:102c140001301a5401301a542138195401307724e0
:102c24001c540130373c1c54023019543b311838c1
:102c340058548d315a5401315a5401315a54013186
:102c44005a540b315a5401315a54b332c639995437
:102c5400813aa4315a5406315a5410bd00440041fb
:042c6400003032000a
:020000040000fa
:102c6800f0b5050085b019000c9b100001931a6897
:102c78002b696c68013bef681d00002c00da012409
:102c88000026fe540a9e0123361b02960226164091
:102c98000b9ad2170392002d04dc002b17d02800c2
:102ca80005b0f0bd02000a4307d1002c05dc029aea
:102cb8001219002af1dd002eefd00b9a039b00f0c9
:102cc8009dfc013d130030327a55013ce3e71023a7
:0e2cd800019a12689a431300019a1360dfe715
:020000040000fa
:022ce600fee707
:020000040000fa
:102ce8001a4b01221a701a00537e5bb2002bfbdbd1
:102cf800174b1a68174b1b68db0e07211140490157
:102d08000b435201e021c9000a4013430f4a1385bf
:102d18000323d370013b53700f4b1361537e5bb297
:102d2800002bfbdb094be022d2009a801a00537e6d
:102d38005bb2002bfbdb054b0f221a760e3ada75d5
:102d48001a00537e5bb2002bfbdb70470040004249
:0c2d580024608000206080000218010f41
:020000040000fa
:102d6400f0b51d00012389b014000e9a06001a4024
:102d74000391029201d1a5420ad82200039930009e
:102d840000f0f0fda54203d82500280009b0f0bded
:102d94002f1b01973a00102f00d91022202104a8dc
:102da40000f052ff019b0f2b0ed80f2204a93a40ca
:102db400300000f0d7fd029b002be6d122000399de
:102dc400300000f0cffde0e7102204a9300000f04d
:0a2dd400c9fd019b103b0193e4e7e9
:020000040000fa
:022dde0070473c
:020000040000fa
:102de00010b5bff35f8f62b6184bc32080001a582e
:102df000ff218a433f390a431a50802252011a6048
:102e00001a58134c2240c02109040a431a50802248
:102e1000d2011a6004301a582240114319508022fe
:102e2000d2021a601a581202120ac02109060a4375
:102e30001a50802212031a6004301a581202120a21
:102e40000a431a50802212041a6010bd00e100e00b
:042e5000ffff00ff81
:020000040000fa
:102e540070b500282fd0194b1a7d0023002a26d1e3
:102e6400164b1860596001321a75154b1b7edb072f
:102e740016d500291dd00023114c0726012507e093
:102e8400c25c22850133227e2a420ad0994208d9a3
:102e940062683240012af3d15a00825a2285f1e74e
:102ea4000023064a9360064b01229a7501231800f9
:102eb40070bd0b00f5e70023f9e7c0467c05002050
:042ec400001c0042ac
:020000040000fa
:102ec8000021f0b5174b184a934208d30027174a38
:102ed80013685168002b05d1002903d1f0bd197082
:102ee8000133f1e7100095680c305c18002d16d0fe
:102ef8000b25ed1a5219a3420ad10b0003221340e5
:102f08005a1e934189085918890040180200dfe7c2
:102f18005d1cae5c1e702b00ede71f700133a342f1
:102f2800fbd1f3e70000002000000020d8180000c3
:020000040000fa
:102f3800f0b50b680c008f68cd68496887b006004b
:102f48000593002902db02218b43059305a95368e9
:102f5800126802910821009701912000fff780fe76
:102f6800059bdb0602d5302301382b54059b1b0734
:102f780002d5202301382b54236929185a1e059b92
:102f8800121a009330003b00fff7e8fe7368db0578
:0e2f980003d56368984200da180007b0f0bd58
:020000040000fa
:102fa60010b584291fd007dc812915d0822922d0ab
:102fb600802911d0002010bd90291cd008dc88295a
:102fc600f8d119680c1d1c600b6803601a7010e0bc
:102fd600a02901d0c029edd119680c1d1c600b6811
:102fe60003601a6005e019680c1d1c600b6803601d
:102ff6001a800120dfe719680c1d1c600b6803604e
:083006001a60d2175a60f4e7ca
:020000040000fa
:02300e00704709
:020000040000fa
:10301000144b01221a601a00d369002bfcd1114b0a
:10302000802252005a601a00d369002bfcd10d4b4c
:10303000e822da600c4a1a601a00d369002bfcd12e
:10304000084b10225a831a00d369002bfcd1074b7e
:10305000002221215a5401395a54024b83329a7565
:103060007047c0460014004216001000ac05002056
:020000040000fa
:10307000f0b59bb004000d00160000214c2207a8fb
:103080001f0000f0e3fd01235b4202930433ff3392
:103090000393002c00d101ac0023049405959d42bc
:1030a00000d06b1e0693002d06da4f220120074b3d
:1030b00040421a601bb0f0bd00233a00237031007b
:1030c00002a80894079400f04ffdf3e730060020b3
:020000040000fa
:1030d000f0b5de4657464e46c0b582b000908946f0
:1030e00017000a9dde08002e18dd00240e4b9b46bb
:1030f00080235b019a46131a01934b461919c9b2f2
:10310000009800f081fb5b4652469a6101992800c5
:1031100000f0f2fded190134b442eedb02b01cbc4c
:0c31200091469a46a346f0bd00440041d1
:020000040000fa
:10312c0000230e4a10b513600d4a13600d4a13604c
:10313c000d4a13600d4a13600d4a5362136101333b
:10314c009360fff75efffff75cff0a4c0a4b9c4253
:10315c0000d310bd08cc9847f8e7c0462c060020d9
:10316c0038050020340500202c05002030050020f7
:0c317c003c050020bc000000c00000006a
:020000040000fa
:10318800114b124a1a60124a9a81c02292025a605e
:103198001a00d369002bfcd10b4a136802210b4398
:1031a8001360d369002bfcd10a4b00229a61da61c3
:1031b8001a622c215a545a621a605a609a601a7517
:1031c800da60da857047c046001c004204013140cd
:0831d8002bf6ffff7c0500202f
:020000040000fa
:1031e000f0b50b680c008f68cd68496887b00600a1
:1031f0000593002902db02218b43059305a953683f
:10320000126802910a21009701912000fff72cfd1e
:10321000236929185a1e059b121a009330003b009f
:10322000fff7a0fd7368db0503d56368984200daf9
:06323000180007b0f0bd1c
:020000040000fa
:1032380010b5114b00229a61da61104b83321a766d
:103248005a680f4c22405a601a00d369002bfcd1ef
:1032580000290cd0084a20330324d45440000843e2
:10326800064b58621a00d369002bfcd110bd024ae4
:1032780020230424d454f1e7ac05002000140042b4
:04328800fffffbff4a
:020000040000fa
:10328c00f0b50f0087b0039015001049072204a871
:10329c001c0000f0b3fcbb687e6802933f68002df5
:1032ac0000d104ad002c03d1280000f0d1fc0400a7
:1032bc00002e02dbb44200d934000097029b22009e
:1032cc0029000398fff748fd07b0f0bd843d0000ce
:020000040000fa
:1032dc0010b5064c2378002b07d1054b002b02d0e0
:1032ec00044800e000bf0123237010bdd805002066
:1032fc000000000000000000044b10b5002b03d0b0
:10330c000349044800e000bf10bdc04600000000a7
:08331c00dc05002000000000a8
:020000040000fa
:1033240010b50a4b98470a4b984700f025fd094b06
:10333400ff229343084a9360084b9847084b9847e9
:10334400084b9847fdf742f9fee7c046df2d000021
:10335400df2d00000000000000ed00e02d31000032
:08336400df2d0000df2d000049
:020000040000fa
:10336c0070b504000d00002815d00c4a2c23d35c3a
:10337c000020002b00d070bd00f09cfa074b9c6124
:10338c00dd6100221a622c2101205854da85044b8d
:10339c0084329a75efe70020ede7c0467c050020eb
:0433ac00001c0042bf
:020000040000fa
:1033b0000d4b01221a801a00d37b5bb2002bfbdb82
:1033c000094bcc22d2001a80084a1a833b229a73f6
:1033d000074a0021116001225a731a00d37b5bb2a5
:1033e000002bfbdb7047c046003000429f240000ea
:0433f00008060020ab
:020000040000fa
:1033f4000d4b01221a801a00d37b5bb2002bfbdb3e
:10340400094bec22d2001a80084a1a833b229a7391
:10341400074a0021116001225a731a00d37b5bb260
:10342400002bfbdb7047c046002c00421bb7ffff9c
:04343400100600205e
:020000040000fa
:1034380070b5c30700d470bd0b4c25786db200f091
:103448003ffc6d00094be85223785bb20133d90f7a
:103458005b18012213405b1a5bb223702378002ba0
:10346800e9d1034b1a70e6e71e060020200600206b
:043478001f0600200b
:020000040000fa
:10347c0070b50d4b1b78934213d000240a4d0134c8
:10348c00635d9342fbd100f0b9f9084b80225201e5
:10349c009a61e000001b064c0019072100f026fc85
:1034ac0070bd0024efe7c0464006002000440041f8
:0434bc0038160000be
:020000040000fa
:1034c00030b401256d054c00e54215d85c00e5429d
:1034d00012d80c001c436400044314430fd005d2df
:1034e00082428b418041013030bc7047904299410b
:1034f0008041013030bc7047002030bc7047012053
:0435000030bc704724
:020000040000fa
:1035040070b50d4b5e681b68db0714d50b4b584335
:10351400094b9b6800280ed00021074c013605e0ba
:10352400b51aeb18c9181300884204d9a2689a4244
:10353400f6d89b1af6e770bd10e000e080bb0000ef
:020000040000fa
:1035440010b50e4b06225a60fff74afbfff74af804
:10355400fff75cfd00f0ecf800f0c0fb00f028fa87
:10356400fff710fe00f094f9fff7bcfbfff740fff4
:10357400fff71cfffff732fc10bdc04600400041be
:020000040000fa
:103584000fb400b583b004ab04cb0193c8210b483e
:10359400fff76cfd431ec62b03d903b008bc04b06f
:1035a4001847064b00221a5401001800fff750fc7c
:1035b40000f0a6fb0028fbd1efe7c0460004002082
:020000040000fa
:1035c400030010b51a78202a0dd0110009390429f6
:1035d40009d900212b2a02d02d2a01d1013101332e
:1035e40000200a2404e00133ece760430133801a2d
:1035f4001a78303a092af8d9002900d1404210bd7e
:020000040000fa
:10360400002b11d1002a0fd1002900d1002802d0ab
:103614000021c943081c07b4024802a140180290c3
:1036240003bdc0466507000003b4684601b50298af
:10363400fff756f8019b9e4602b00cbc7047c0468b
:020000040000fa
:1036440030b401256d054c00e54215d85c00e54217
:1036540012d80c001c436400044314430cd005d25c
:1036640082428b418041404230bc70479042994134
:0e3674008041404230bc7047002030bc70479f
:020000040000fa
:1036820030b401256d054c00e54215d85c00e542d9
:1036920012d80c001c436400044314430cd005d21e
:1036a200904299418041404230bc704782428b41f6
:0e36b2008041404230bc7047002030bc704761
:020000040000fa
:1036c0001c2101231b04984201d3000c10391b0a52
:1036d000984201d3000a08391b09984201d3000916
:1036e000043902a2105c40187047c046040302026d
:0c36f000010101010000000000000000ca
:020000040000fa
:1036fc0070b50c4d20242d5d0024002d01d0200030
:10370c0070bd084ca080e360049b6361a1602261e2
:10371c000023a37023702122a3540021fff786fd00
:08372c000124ece7ac050020cc
:020000040000fa
:103734000b4b01221a6019008b681a42fcd1084b0a
:1037440000221a600221d9635a64962292019a6473
:10375400044a1a641a009368002bfcd17047c046cf
:083764000028004280bb0000b8
:020000040000fa
:10376c0010b50b4c2023e45c0023002c01d0180076
:10377c0010bd074b9880dc605c6199601a619c708d
:10378c001c7021229c540021fff750fd0123eee711
:04379c00ac05002058
:020000040000fa
:1037a000f0b5050000200a4c4200165d002e02d143
:1037b000a2185078f0bd296801300f78c0b2b74226
:1037c00003d1a2180131507829600a28ecd9f1e719
:0437d000bc3a0000ff
:020000040000fa
:1037d400f4464a1805d200f046f801d5c01740084f
:1037e400604701235b05d34206d200f03cf801d5c3
:1037f4000120c0074042604701d10042f5d0d017f4
:0438040040087047c1
:020000040000fa
:1038080000b583b001aa0f230340137000091030dc
:10381800507050399170054b80214901596103213d
:10382800100000f065fa03b000bdc0460044004136
:020000040000fa
:1038380070b4012676054c005d00e6420cd8ee42d5
:103848000ad825430543154303d0994204d1904231
:0e38580002d1012070bc7047002070bc704788
:020000040000fa
:103866004a0010d2520d03231b02ff33d21a0ad488
:1038760052421f3209d4400dc90208430123db0717
:0e3886001843d040704700207047d01770479d
:020000040000fa
:10389400084b802292025a601a00d369002bfcd193
:1038a400044b17221a73044a1a601a00d369002bb6
:0c38b400fcd17047001800420e0001001b
:020000040000fa
:1038c000094b5b8b5b070dd0074b80221a76793a48
:1038d0005a831b7e5b0705d5034b04211a8d1a7e84
:0c38e0000a42fbd17047c046001c0042a9
:020000040000fa
:1038ec00002380290fdb812901dd83290bd10721de
:1038fc00136807338b431900083111601a685b6831
:0a390c0002604360012318007047b9
:020000040000fa
:10391800074a2023d35c0120002b07d1054b588b85
:10392800302318401038431e9841c0b27047c04633
:08393800ac0500200014004260
:020000040000fa
:10394000f8b504000e0017000025380000f086f9d5
:10395000a84208d97a5d31002000fff78ffd0135bc
:083960000734e4b2f1e7f8bd01
:020000040000fa
:1039680070b505690400954200d915002a00606900
:1039780000f046f9226963695b19551b002225612d
:0639880063611a7070bdbe
:020000040000fa
:1039900010b5064b187ec0b201221a76044b1b6884
:1039a000002b02d0024a5168984710bd00400042e7
:0439b00000060020ed
:020000040000fa
:1039b400054a002313609360044951600621116095
:1039c400034a93601360704710e000e07fbb00007f
:0439d400f4050020d6
:020000040000fa
:1039d80010b5064b1b68064b9a6801329a601b6843
:1039e800002b02d0024a5068984710bd10e000e052
:0439f800f4050020b2
:020000040000fa
:1039fc0010b5064b987bc0b23b229a73044b1b68e4
:103a0c00002b02d0024a5168984710bd003000428a
:043a1c000806002078
:020000040000fa
:103a200010b5064b987bc0b23b229a73044b1b68bf
:103a3000002b02d0024a5168984710bd002c00426a
:043a4000100600204c
:020000040000fa
:103a4400054b064a5a801a00d37b5bb2002bfbdb82
:103a5400014b188b80b27047003000421880ffff82
:020000040000fa
:103a6400054b064a5a801a00d37b5bb2002bfbdb62
:103a7400014b188b80b27047002c00421880ffff66
:020000040000fa
:103a8400054a136802210b431360110002228b685c
:0c3a94001a42fcd17047c04600280042d6
:020000040000fa
:103aa000aed580a83fd300408d142002a1c8da1201
:0c3ab00081cfd9f1db40a4a6af00c046d6
:020000040000fa
:103abc0068076c094c836a9074a07ac0008068888f
:0c3acc0000846c820081286e696c290067
:020000040000fa
:103ad800044a137802210b431370537e5bb2002b08
:083ae800fbdb704700400042c7
:020000040000fa
:103af000044a137b02210b431373537e5bb2002bea
:083b0000fbdb704700400042ae
:020000040000fa
:103b0800044a138802210b431380d37b5bb2002b3a
:083b1800fbdb704700300042a6
:020000040000fa
:103b2000044a138802210b431380d37b5bb2002b22
:083b3000fbdb7047002c004292
:020000040000fa
:103b3800044980228b681a42fcd1024b186c80b26f
:083b48007047c046002800424e
:020000040000fa
:103b5000034b1b78db0602d5024b01221a7070471b
:083b60003c0600203a0600209b
:020000040000fa
:103b680013b50400019201aafdf7d0fb6368db06d8
:083b780001d50120404216bdf9
:020000040000fa
:103b8000d0400b1cd1409c46203ad34018435242af
:103b900063469340184370479140031c90409c46f5
:103ba000203a9340194352426346d3401943704729
:103bb00010b5002903d1fff783fd203002e0081c77
:083bc000fff77efd10bdc046b9
:020000040000fa
:103bc8000eb403b503aa02ca019200f00ff802b0be
:063bd80008bc03b0184711
:020000040000fa
:103be000034b00229a601a6801210a431a60704749
:043bf00010e000e001
:020000040000fa
:103bf40010b513000a000249fff738fa10bdc04699
:043c0400ffffff7f40
:020000040000fa
:103c0800002310b59a4200d110bdcc5cc4540133d6
:023c1800f8e7cb
:020000040000fa
:103c1a0003000a7818001a7001310133002af8d11a
:023c2a007047e1
:020000040000fa
:103c2c00c30702d5014b01221a70704736060020db
:020000040000fa
:103c3c00c30702d5014b01221a70704737060020ca
:020000040000fa
:103c4c0003001218934200d1704719700133f9e741
:020000040000fa
:103c5c0003001a78002a01d1181a70470133f8e7cb
:020000040000fa
:103c6c00494e4600696e66004e414e006e616e0014
:103c7c00494e4600696e66004e414e006e616e0004
:020000040000fa
:103c8c0010b5fef7b1fa029a039bfdf727ff10bda2
:020000040000fa
:103c9c00f0b40125ed076b40004c2047ef1a0000f3
:020000040000fa
:0e3cac000300413b192b01d820231843704719
:020000040000fa
:0e3cba000300613b192b01d85f2318407047af
:020000040000fa
:0c3cc800014b588b80b270470040004256
:020000040000fa
:0c3cd400014b186059607047000600208a
:020000040000fa
:0c3ce000014b82225a60704700400041f6
:020000040000fa
:0c3cec00014b586299627047ac05002043
:020000040000fa
:0c3cf80010b500230022fdf7d7ff10bd1f
:020000040000fa
:0c3d0400014b187dc0b270477c05002008
:020000040000fa
:0c3d1000014bd860196170477c05002051
:020000040000fa
:0c3d1c00014b5862996270477c05002042
:020000040000fa
:0c3d2800014b186059607047080600202d
:020000040000fa
:0c3d3400014b1860596070471006002019
:020000040000fa
:0c3d4000014b01221a7070473f06002062
:020000040000fa
:0c3d4c00014b01221a7070473d06002058
:020000040000fa
:0c3d580010b50400fff75dff200010bd57
:020000040000fa
:083d640000487047006cdc020e
:020000040000fa
:083d6c00004870476cdc020006
:020000040000fa
:083d7400004870471bb7000076
:020000040000fa
:083d7c0010b5fff7a3f810bd1c
:020000040000fa
:073d8400286e756c6c29002c
:020000040000fa
:043d8c007047c04676
:020000040000fa
:0200000400807a
:0440000077c700d8a6
:020000040000fa
:0200000400807a
:044004005c00ffff5e
:00000001FF
